{
  "contractName": "ChecksEffectsInteractionsPattern",
  "abi": [
    {
      "inputs": [
        {
          "internalType": "address",
          "name": "",
          "type": "address"
        }
      ],
      "name": "balances",
      "outputs": [
        {
          "internalType": "uint256",
          "name": "",
          "type": "uint256"
        }
      ],
      "stateMutability": "view",
      "type": "function"
    },
    {
      "stateMutability": "payable",
      "type": "receive"
    },
    {
      "inputs": [
        {
          "internalType": "uint256",
          "name": "_amount",
          "type": "uint256"
        }
      ],
      "name": "withdraw",
      "outputs": [],
      "stateMutability": "nonpayable",
      "type": "function"
    }
  ],
  "bytecode": "0x608060405234801561001057600080fd5b5061027c806100206000396000f3fe60806040526004361061002d5760003560e01c806327e235e3146100855780632e1a7d4d146100ea57610080565b3661008057346000803373ffffffffffffffffffffffffffffffffffffffff1673ffffffffffffffffffffffffffffffffffffffff16815260200190815260200160002060008282540192505081905550005b600080fd5b34801561009157600080fd5b506100d4600480360360208110156100a857600080fd5b81019080803573ffffffffffffffffffffffffffffffffffffffff169060200190929190505050610125565b6040518082815260200191505060405180910390f35b3480156100f657600080fd5b506101236004803603602081101561010d57600080fd5b810190808035906020019092919050505061013d565b005b60006020528060005260406000206000915090505481565b806000803373ffffffffffffffffffffffffffffffffffffffff1673ffffffffffffffffffffffffffffffffffffffff168152602001908152602001600020541061024357806000803373ffffffffffffffffffffffffffffffffffffffff1673ffffffffffffffffffffffffffffffffffffffff1681526020019081526020016000206000828254039250508190555060003373ffffffffffffffffffffffffffffffffffffffff168260405180600001905060006040518083038185875af1925050503d806000811461022e576040519150601f19603f3d011682016040523d82523d6000602084013e610233565b606091505b505090508061024157600080fd5b505b5056fea2646970667358221220f32edf3ae3af0da9918930a69832ddb68db4e69a8642d12aec005fcf19e1f1f364736f6c63430007000033",
  "immutableReferences": {},
  "source": "pragma solidity 0.7.0;\n\ncontract ChecksEffectsInteractionsPattern {\n    mapping (address => uint256) public balances;\n\n    receive() external payable {\n        balances[msg.sender] += msg.value;\n    }\n\n    function withdraw(uint _amount) public{\n        // Checks\n        if(balances[msg.sender] >= _amount){\n            // Effects\n            balances[msg.sender] -= _amount;\n            // Interaction\n            (bool success,) = msg.sender.call{value: _amount}(\"\");\n            require(success);\n        }\n    }\n}\n",
  "sourcePath": "/home/niklas/Documents/HIWI PATTERNS/smart-contract-dev-support/project-examples/ethereum/contracts/Idioms/Checks-Effects-Interactions Pattern/ChecksEffectsInteractionsPattern.sol",
  "compiler": {
    "name": "solc",
    "version": "0.7.0+commit.9e61f92b.Emscripten.clang"
  },
  "schemaVersion": "3.4.0",
  "updatedAt": "2021-08-30T09:29:37.554Z",
  "devdoc": {
    "kind": "dev",
    "methods": {},
    "version": 1
  },
  "userdoc": {
    "kind": "user",
    "methods": {},
    "version": 1
  }
}