{
  "contractName": "ChecksEffectsInteractionsAntipattern",
  "abi": [
    {
      "inputs": [
        {
          "internalType": "address",
          "name": "",
          "type": "address"
        }
      ],
      "name": "balances",
      "outputs": [
        {
          "internalType": "uint256",
          "name": "",
          "type": "uint256"
        }
      ],
      "stateMutability": "view",
      "type": "function"
    },
    {
      "stateMutability": "payable",
      "type": "receive"
    },
    {
      "inputs": [],
      "name": "withdraw",
      "outputs": [],
      "stateMutability": "nonpayable",
      "type": "function"
    }
  ],
  "bytecode": "0x608060405234801561001057600080fd5b50610265806100206000396000f3fe60806040526004361061002d5760003560e01c806327e235e3146100855780633ccfd60b146100ea57610080565b3661008057346000803373ffffffffffffffffffffffffffffffffffffffff1673ffffffffffffffffffffffffffffffffffffffff16815260200190815260200160002060008282540192505081905550005b600080fd5b34801561009157600080fd5b506100d4600480360360208110156100a857600080fd5b81019080803573ffffffffffffffffffffffffffffffffffffffff169060200190929190505050610101565b6040518082815260200191505060405180910390f35b3480156100f657600080fd5b506100ff610119565b005b60006020528060005260406000206000915090505481565b6000670de0b6b3a76400009050806000803373ffffffffffffffffffffffffffffffffffffffff1673ffffffffffffffffffffffffffffffffffffffff168152602001908152602001600020541061022c5760003373ffffffffffffffffffffffffffffffffffffffff168260405180600001905060006040518083038185875af1925050503d80600081146101cb576040519150601f19603f3d011682016040523d82523d6000602084013e6101d0565b606091505b50509050806101de57600080fd5b816000803373ffffffffffffffffffffffffffffffffffffffff1673ffffffffffffffffffffffffffffffffffffffff16815260200190815260200160002060008282540392505081905550505b5056fea26469706673582212203d09f4632f126b74f87fcdbbf1010d91c7a8b9aa8d4e754ee5dddf99da62c79f64736f6c63430007000033",
  "immutableReferences": {},
  "source": "pragma solidity 0.7.0;\n\ncontract ChecksEffectsInteractionsAntipattern {\n    mapping (address => uint256) public balances;\n\n    receive() external payable {\n        balances[msg.sender] += msg.value;\n    }\n\n    function withdraw() public{\n        uint _amount;\n        _amount = 1 ether; \n        \n        // Checks\n\n        //poor checks\n        if(balances[msg.sender] >= _amount){ \n            // Interactions\n            (bool success,) = msg.sender.call{value: _amount}(\"\");\n            require(success);\n            // Effects\n            balances[msg.sender] -= _amount;\n        }\n    }\n}",
  "sourcePath": "/home/niklas/Documents/HIWI PATTERNS/smart-contract-dev-support/Idioms/Checks-Effects-Interactions Pattern/ChecksEffectsInteractionsAntipattern.sol",
  "compiler": {
    "name": "solc",
    "version": "0.7.0+commit.9e61f92b.Emscripten.clang"
  },
  "schemaVersion": "3.4.0",
  "updatedAt": "2021-05-26T11:12:50.854Z",
  "devdoc": {
    "kind": "dev",
    "methods": {},
    "version": 1
  },
  "userdoc": {
    "kind": "user",
    "methods": {},
    "version": 1
  }
}