{
  "contractName": "CommitmentPattern",
  "abi": [
    {
      "inputs": [
        {
          "internalType": "address",
          "name": "",
          "type": "address"
        }
      ],
      "name": "userCommits",
      "outputs": [
        {
          "internalType": "bytes32",
          "name": "secretCommit",
          "type": "bytes32"
        },
        {
          "internalType": "bytes32",
          "name": "secretSalt",
          "type": "bytes32"
        },
        {
          "internalType": "string",
          "name": "plainValue",
          "type": "string"
        },
        {
          "internalType": "string",
          "name": "plainSalt",
          "type": "string"
        }
      ],
      "stateMutability": "view",
      "type": "function"
    },
    {
      "inputs": [
        {
          "internalType": "bytes32",
          "name": "_secretCommit",
          "type": "bytes32"
        },
        {
          "internalType": "bytes32",
          "name": "_secretSalt",
          "type": "bytes32"
        }
      ],
      "name": "commit",
      "outputs": [],
      "stateMutability": "nonpayable",
      "type": "function"
    },
    {
      "inputs": [
        {
          "internalType": "string",
          "name": "_plainSalt",
          "type": "string"
        },
        {
          "internalType": "string",
          "name": "_plainValue",
          "type": "string"
        }
      ],
      "name": "reveal",
      "outputs": [],
      "stateMutability": "nonpayable",
      "type": "function"
    }
  ],
  "bytecode": "0x608060405234801561001057600080fd5b50610cb0806100206000396000f3fe608060405234801561001057600080fd5b50600436106100415760003560e01c80632b43f745146100465780635ba1b2c71461017d578063e3ce094d146102cf575b600080fd5b6100886004803603602081101561005c57600080fd5b81019080803573ffffffffffffffffffffffffffffffffffffffff169060200190929190505050610307565b604051808581526020018481526020018060200180602001838103835285818151815260200191508051906020019080838360005b838110156100d85780820151818401526020810190506100bd565b50505050905090810190601f1680156101055780820380516001836020036101000a031916815260200191505b50838103825284818151815260200191508051906020019080838360005b8381101561013e578082015181840152602081019050610123565b50505050905090810190601f16801561016b5780820380516001836020036101000a031916815260200191505b50965050505050505060405180910390f35b6102cd6004803603604081101561019357600080fd5b81019080803590602001906401000000008111156101b057600080fd5b8201836020820111156101c257600080fd5b803590602001918460018302840111640100000000831117156101e457600080fd5b91908080601f016020809104026020016040519081016040528093929190818152602001838380828437600081840152601f19601f8201169050808301925050505050505091929192908035906020019064010000000081111561024757600080fd5b82018360208201111561025957600080fd5b8035906020019184600183028401116401000000008311171561027b57600080fd5b91908080601f016020809104026020016040519081016040528093929190818152602001838380828437600081840152601f19601f820116905080830192505050505050509192919290505050610467565b005b610305600480360360408110156102e557600080fd5b81019080803590602001909291908035906020019092919050505061086d565b005b6000602052806000526040600020600091509050806000015490806001015490806002018054600181600116156101000203166002900480601f0160208091040260200160405190810160405280929190818152602001828054600181600116156101000203166002900480156103bf5780601f10610394576101008083540402835291602001916103bf565b820191906000526020600020905b8154815290600101906020018083116103a257829003601f168201915b505050505090806003018054600181600116156101000203166002900480601f01602080910402602001604051908101604052809291908181526020018280546001816001161561010002031660029004801561045d5780601f106104325761010080835404028352916020019161045d565b820191906000526020600020905b81548152906001019060200180831161044057829003601f168201915b5050505050905084565b60008060003373ffffffffffffffffffffffffffffffffffffffff1673ffffffffffffffffffffffffffffffffffffffff16815260200190815260200160002060000154141561051f576040517f08c379a000000000000000000000000000000000000000000000000000000000815260040180806020018281038252601d8152602001807f596f7520646964206e6f7420636f6d6d697420746f20612076616c756500000081525060200191505060405180910390fd5b816040516020018080602001828103825283818151815260200191508051906020019080838360005b83811015610563578082015181840152602081019050610548565b50505050905090810190601f1680156105905780820380516001836020036101000a031916815260200191505b5092505050604051602081830303815290604052805190602001206000803373ffffffffffffffffffffffffffffffffffffffff1673ffffffffffffffffffffffffffffffffffffffff1681526020019081526020016000206001015414610643576040517f08c379a000000000000000000000000000000000000000000000000000000000815260040180806020018281038252602a815260200180610c27602a913960400191505060405180910390fd5b81816040516020018083805190602001908083835b6020831061067b5780518252602082019150602081019050602083039250610658565b6001836020036101000a03801982511681845116808217855250505050505090500182805190602001908083835b602083106106cc57805182526020820191506020810190506020830392506106a9565b6001836020036101000a03801982511681845116808217855250505050505090500192505050604051602081830303815290604052805190602001206000803373ffffffffffffffffffffffffffffffffffffffff1673ffffffffffffffffffffffffffffffffffffffff16815260200190815260200160002060000154146107bd576040517f08c379a000000000000000000000000000000000000000000000000000000000815260040180806020018281038252600f8152602001807f496e76616c69642076616c7565732e000000000000000000000000000000000081525060200191505060405180910390fd5b816000803373ffffffffffffffffffffffffffffffffffffffff1673ffffffffffffffffffffffffffffffffffffffff1681526020019081526020016000206003019080519060200190610812929190610b5b565b50806000803373ffffffffffffffffffffffffffffffffffffffff1673ffffffffffffffffffffffffffffffffffffffff1681526020019081526020016000206002019080519060200190610868929190610b5b565b505050565b60008060003373ffffffffffffffffffffffffffffffffffffffff1673ffffffffffffffffffffffffffffffffffffffff1681526020019081526020016000206000015414610907576040517f08c379a000000000000000000000000000000000000000000000000000000000815260040180806020018281038252602a815260200180610c51602a913960400191505060405180910390fd5b61090f610bdb565b6000803373ffffffffffffffffffffffffffffffffffffffff1673ffffffffffffffffffffffffffffffffffffffff1681526020019081526020016000206040518060800160405290816000820154815260200160018201548152602001600282018054600181600116156101000203166002900480601f016020809104026020016040519081016040528092919081815260200182805460018160011615610100020316600290048015610a055780601f106109da57610100808354040283529160200191610a05565b820191906000526020600020905b8154815290600101906020018083116109e857829003601f168201915b50505050508152602001600382018054600181600116156101000203166002900480601f016020809104026020016040519081016040528092919081815260200182805460018160011615610100020316600290048015610aa75780601f10610a7c57610100808354040283529160200191610aa7565b820191906000526020600020905b815481529060010190602001808311610a8a57829003601f168201915b50505050508152505090508281600001818152505081816020018181525050806000803373ffffffffffffffffffffffffffffffffffffffff1673ffffffffffffffffffffffffffffffffffffffff16815260200190815260200160002060008201518160000155602082015181600101556040820151816002019080519060200190610b35929190610b5b565b506060820151816003019080519060200190610b52929190610b5b565b50905050505050565b828054600181600116156101000203166002900490600052602060002090601f016020900481019282601f10610b9c57805160ff1916838001178555610bca565b82800160010185558215610bca579182015b82811115610bc9578251825591602001919060010190610bae565b5b509050610bd79190610c09565b5090565b6040518060800160405280600080191681526020016000801916815260200160608152602001606081525090565b5b80821115610c22576000816000905550600101610c0a565b509056fe596f75722073616c7420646f6573206e6f74206d6174636820746865206f726967696e616c206f6e652e596f757220636f6d6d69746d656e742063616e6e6f74206265206368616e67656420616e796d6f72652ea264697066735822122093ae85fb077e395023ae46cac794c6c12e35727adde2a7e8a5f8c0aab705449d64736f6c63430007000033",
  "immutableReferences": {},
  "source": "pragma solidity 0.7.0;\n\ncontract CommitmentPattern {\n    struct UserCommit { \n        bytes32 secretCommit; \n        bytes32 secretSalt; \n        string plainValue; \n        string plainSalt;\n    }\n\n    mapping(address => UserCommit) public userCommits;\n\n    function commit(bytes32 _secretCommit, bytes32 _secretSalt) public {\n        require(userCommits[msg.sender].secretCommit == \"\", \"Your commitment cannot be changed anymore.\");\n\n        UserCommit memory uC = userCommits[msg.sender];\n        uC.secretCommit = _secretCommit;\n        uC.secretSalt = _secretSalt;\n\n        userCommits[msg.sender] = uC;\n    }\n\n    function reveal(string memory _plainSalt, string memory _plainValue) public { \n        require(userCommits[msg.sender].secretCommit != \"\", \"You did not commit to a value\"); \n        require(userCommits[msg.sender].secretSalt == keccak256(abi.encode(_plainSalt)), \"Your salt does not match the original one.\"); \n        require(userCommits[msg.sender].secretCommit == keccak256(abi.encodePacked(_plainSalt, _plainValue)), \"Invalid values.\");\n\n        userCommits[msg.sender].plainSalt = _plainSalt;\n        userCommits[msg.sender].plainValue = _plainValue;\n    }\n}\n",
  "sourcePath": "/home/niklas/Documents/HIWI PATTERNS/smart-contract-dev-support/Design Patterns/Commitment Pattern/CommitmentPattern.sol",
  "compiler": {
    "name": "solc",
    "version": "0.7.0+commit.9e61f92b.Emscripten.clang"
  },
  "schemaVersion": "3.4.0",
  "updatedAt": "2021-05-26T11:12:50.845Z",
  "devdoc": {
    "kind": "dev",
    "methods": {},
    "version": 1
  },
  "userdoc": {
    "kind": "user",
    "methods": {},
    "version": 1
  }
}