{
  "contractName": "DeactivationPattern",
  "abi": [
    {
      "stateMutability": "payable",
      "type": "fallback"
    },
    {
      "inputs": [],
      "name": "deactivate",
      "outputs": [],
      "stateMutability": "nonpayable",
      "type": "function"
    },
    {
      "inputs": [],
      "name": "anyFunction",
      "outputs": [],
      "stateMutability": "nonpayable",
      "type": "function"
    }
  ],
  "bytecode": "0x608060405260016000806101000a81548160ff02191690831515021790555034801561002a57600080fd5b506101b28061003a6000396000f3fe60806040526004361061002d5760003560e01c80630e21a23f146100b057806351b42b00146100c75761002e565b5b60008054906101000a900460ff166100ae576040517f08c379a00000000000000000000000000000000000000000000000000000000081526004018080602001828103825260178152602001807f436f6e747261637420697320646561637469766174656400000000000000000081525060200191505060405180910390fd5b005b3480156100bc57600080fd5b506100c56100de565b005b3480156100d357600080fd5b506100dc610160565b005b60008054906101000a900460ff1661015e576040517f08c379a00000000000000000000000000000000000000000000000000000000081526004018080602001828103825260178152602001807f436f6e747261637420697320646561637469766174656400000000000000000081525060200191505060405180910390fd5b565b60008060006101000a81548160ff02191690831515021790555056fea2646970667358221220ae81483aad52e6832bd494984ead448819ece574f7771f69aa12dd99b64a4df864736f6c63430007000033",
  "immutableReferences": {},
  "source": "pragma solidity 0.7.0;\n\ncontract DeactivationPattern {\n    \n    bool _activated = true; \n    \n    modifier checkActive(){\n      require (_activated, \"Contract is deactivated\");\n      _;\n    }\n\n\n    // This is only for demonstration purposes.\n    // Everyone is able to deactivate your smart contract.\n    function deactivate() public{\n      _activated = false;\n    }\n    \n    function anyFunction() checkActive public {\n      //code to be reverted by deactivation \n    }\n\n    fallback() checkActive external payable {\n    }\n}",
  "sourcePath": "/home/niklas/Documents/HIWI PATTERNS/smart-contract-dev-support/project-examples/ethereum/contracts/Idioms/Deactivation Pattern/DeactivationPattern.sol",
  "compiler": {
    "name": "solc",
    "version": "0.7.0+commit.9e61f92b.Emscripten.clang"
  },
  "schemaVersion": "3.4.0",
  "updatedAt": "2021-08-09T14:38:56.613Z",
  "devdoc": {
    "kind": "dev",
    "methods": {},
    "version": 1
  },
  "userdoc": {
    "kind": "user",
    "methods": {},
    "version": 1
  }
}