{
  "contractName": "DeactivationAntipattern",
  "abi": [
    {
      "inputs": [],
      "name": "close",
      "outputs": [],
      "stateMutability": "nonpayable",
      "type": "function"
    }
  ],
  "bytecode": "0x6080604052348015600f57600080fd5b5060848061001e6000396000f3fe6080604052348015600f57600080fd5b506004361060285760003560e01c806343d726d614602d575b600080fd5b60336035565b005b3373ffffffffffffffffffffffffffffffffffffffff16fffea2646970667358221220bc316633dd50165d51ff8a850e1d44f8319607d92b8aa6680579513a636292db64736f6c63430007000033",
  "immutableReferences": {},
  "source": "pragma solidity 0.7.0;\n\ncontract DeactivationAntipattern {\n    function close() public { \n      selfdestruct(msg.sender); \n    }\n}",
  "sourcePath": "/home/niklas/Documents/HIWI PATTERNS/smart-contract-dev-support/Idioms/Deactivation Pattern/DeactivationAntipattern.sol",
  "compiler": {
    "name": "solc",
    "version": "0.7.0+commit.9e61f92b.Emscripten.clang"
  },
  "schemaVersion": "3.4.0",
  "updatedAt": "2021-05-26T11:12:50.856Z",
  "devdoc": {
    "kind": "dev",
    "methods": {},
    "version": 1
  },
  "userdoc": {
    "kind": "user",
    "methods": {},
    "version": 1
  }
}