{
  "contractName": "DeactivationPattern",
  "abi": [
    {
      "inputs": [],
      "stateMutability": "nonpayable",
      "type": "constructor"
    },
    {
      "stateMutability": "payable",
      "type": "receive"
    },
    {
      "inputs": [],
      "name": "anyFunction",
      "outputs": [],
      "stateMutability": "nonpayable",
      "type": "function"
    },
    {
      "inputs": [
        {
          "internalType": "bool",
          "name": "_active",
          "type": "bool"
        }
      ],
      "name": "setActive",
      "outputs": [],
      "stateMutability": "nonpayable",
      "type": "function"
    }
  ],
  "bytecode": "0x60806040526001600060146101000a81548160ff02191690831515021790555034801561002b57600080fd5b50336000806101000a81548173ffffffffffffffffffffffffffffffffffffffff021916908373ffffffffffffffffffffffffffffffffffffffff1602179055506102a78061007b6000396000f3fe60806040526004361061002d5760003560e01c80630e21a23f146100bb578063acec338a146100d2576100b6565b366100b657600060149054906101000a900460ff166100b4576040517f08c379a00000000000000000000000000000000000000000000000000000000081526004018080602001828103825260178152602001807f436f6e747261637420697320646561637469766174656400000000000000000081525060200191505060405180910390fd5b005b600080fd5b3480156100c757600080fd5b506100d061010f565b005b3480156100de57600080fd5b5061010d600480360360208110156100f557600080fd5b81019080803515159060200190929190505050610193565b005b600060149054906101000a900460ff16610191576040517f08c379a00000000000000000000000000000000000000000000000000000000081526004018080602001828103825260178152602001807f436f6e747261637420697320646561637469766174656400000000000000000081525060200191505060405180910390fd5b565b3373ffffffffffffffffffffffffffffffffffffffff1660008054906101000a900473ffffffffffffffffffffffffffffffffffffffff1673ffffffffffffffffffffffffffffffffffffffff1614610254576040517f08c379a000000000000000000000000000000000000000000000000000000000815260040180806020018281038252600e8152602001807f4e6f7420617574686f72697a656400000000000000000000000000000000000081525060200191505060405180910390fd5b80600060146101000a81548160ff0219169083151502179055505056fea2646970667358221220bec295c6000a9e5df42b36159c0a7e2928c6fdfbd9877e9b9d80a38ec3bd0e8f64736f6c63430007000033",
  "immutableReferences": {},
  "source": "pragma solidity 0.7.0;\n\ncontract DeactivationPattern {\n    address payable owner;\n    bool activated = true; \n\n    constructor() {\n      owner = msg.sender;\n    }\n    \n    modifier checkActive(){\n      require (activated, \"Contract is deactivated\");\n      _;\n    }\n\n    modifier onlyOwner(){\n        require (owner == msg.sender, \"Not authorized\");\n        _;\n    }\n\n    receive() external payable checkActive {\n    }\n \n    function anyFunction() checkActive public {\n      //code to be reverted by deactivation \n    }\n\n    function setActive(bool _active) public onlyOwner{\n      activated = _active;\n    }\n\n}",
  "sourcePath": "/home/niklas/Documents/HIWI PATTERNS/smart-contract-dev-support/project-examples/ethereum/contracts/Idioms/Deactivation Pattern/DeactivationPattern.sol",
  "compiler": {
    "name": "solc",
    "version": "0.7.0+commit.9e61f92b.Emscripten.clang"
  },
  "schemaVersion": "3.4.0",
  "updatedAt": "2021-08-30T09:29:37.555Z",
  "devdoc": {
    "kind": "dev",
    "methods": {},
    "version": 1
  },
  "userdoc": {
    "kind": "user",
    "methods": {},
    "version": 1
  }
}