{
  "contractName": "DeactivationPattern",
  "abi": [
    {
      "inputs": [],
      "name": "anyFunction",
      "outputs": [],
      "stateMutability": "nonpayable",
      "type": "function"
    }
  ],
  "bytecode": "0x608060405260016000806101000a81548160ff021916908315150217905550348015602957600080fd5b506083806100386000396000f3fe6080604052348015600f57600080fd5b506004361060285760003560e01c80630e21a23f14602d575b600080fd5b60336035565b005b60008054906101000a900460ff16604b57600080fd5b56fea2646970667358221220668ec226bd960b14cc0ca92314bcd29abfb87b2a758561a22498c8696580976664736f6c63430007000033",
  "immutableReferences": {},
  "source": "pragma solidity 0.7.0;\n\ncontract DeactivationPattern {\n    bool _activated = true; \n    \n    modifier checkActive(){\n      require (_activated);\n      _;\n    }\n    \n    function anyFunction() checkActive public {\n      //code to be reverted by deactivation \n    }\n}",
  "sourcePath": "/home/niklas/Documents/HIWI PATTERNS/smart-contract-dev-support/project-examples/ethereum/contracts/Idioms/Deactivation Pattern/DeactivationPattern.sol",
  "compiler": {
    "name": "solc",
    "version": "0.7.0+commit.9e61f92b.Emscripten.clang"
  },
  "schemaVersion": "3.4.0",
  "updatedAt": "2021-06-10T07:34:01.571Z",
  "devdoc": {
    "kind": "dev",
    "methods": {},
    "version": 1
  },
  "userdoc": {
    "kind": "user",
    "methods": {},
    "version": 1
  }
}