{
  "contractName": "ErrorHandlingPatternRequireRevert",
  "abi": [
    {
      "inputs": [
        {
          "internalType": "address payable",
          "name": "_addr",
          "type": "address"
        }
      ],
      "name": "sendAssets",
      "outputs": [
        {
          "internalType": "bool",
          "name": "",
          "type": "bool"
        }
      ],
      "stateMutability": "payable",
      "type": "function"
    },
    {
      "inputs": [
        {
          "internalType": "address payable",
          "name": "_addr",
          "type": "address"
        }
      ],
      "name": "sendAssetsMoreComplex",
      "outputs": [
        {
          "internalType": "bool",
          "name": "",
          "type": "bool"
        }
      ],
      "stateMutability": "payable",
      "type": "function"
    }
  ],
  "bytecode": "0x608060405234801561001057600080fd5b5061030f806100206000396000f3fe6080604052600436106100295760003560e01c806374aaff8f1461002e578063f77c500814610088575b600080fd5b6100706004803603602081101561004457600080fd5b81019080803573ffffffffffffffffffffffffffffffffffffffff1690602001909291905050506100e2565b60405180821515815260200191505060405180910390f35b6100ca6004803603602081101561009e57600080fd5b81019080803573ffffffffffffffffffffffffffffffffffffffff1690602001909291905050506101e8565b60405180821515815260200191505060405180910390f35b60006103e84410156101de5760008273ffffffffffffffffffffffffffffffffffffffff166002348161011157fe5b0460405180600001905060006040518083038185875af1925050503d8060008114610158576040519150601f19603f3d011682016040523d82523d6000602084013e61015d565b606091505b50509050806101d4576040517f08c379a00000000000000000000000000000000000000000000000000000000081526004018080602001828103825260168152602001807f4173736574207472616e73666572206661696c65642e0000000000000000000081525060200191505060405180910390fd5b60019150506101e3565b600190505b919050565b6000808273ffffffffffffffffffffffffffffffffffffffff166002348161020c57fe5b0460405180600001905060006040518083038185875af1925050503d8060008114610253576040519150601f19603f3d011682016040523d82523d6000602084013e610258565b606091505b50509050806102cf576040517f08c379a00000000000000000000000000000000000000000000000000000000081526004018080602001828103825260168152602001807f4173736574207472616e73666572206661696c65642e0000000000000000000081525060200191505060405180910390fd5b600191505091905056fea2646970667358221220962e47a60fd8bf7ab944552fd3e2ad9612a82999172b5696c41c7f4b621d468c64736f6c63430007000033",
  "immutableReferences": {},
  "source": "pragma solidity 0.7.0;\n\ncontract ErrorHandlingPatternRequireRevert {\n    function sendAssets(address payable _addr)\n        public payable returns (bool) {\n            (bool success, ) = _addr.call{value: (msg.value / 2)}(\"\");\n            require (success, \"Asset transfer failed.\");\n            return true;\n    }\n\n    function sendAssetsMoreComplex(address payable _addr)\n        public payable returns (bool) {\n            if(block.difficulty < 1000) {\n                (bool success, ) = _addr.call{value: (msg.value / 2)}(\"\");\n                if(!success) {\n                    revert(\"Asset transfer failed.\");\n                } else {\n                    return true;\n                }\n            }      \n            return true;\n     }\n}\n",
  "sourcePath": "/home/niklas/Documents/HIWI PATTERNS/smart-contract-dev-support/project-examples/ethereum/contracts/Idioms/Error-Handling Pattern/ErrorHandlingPatternRequireRevert.sol",
  "compiler": {
    "name": "solc",
    "version": "0.7.0+commit.9e61f92b.Emscripten.clang"
  },
  "schemaVersion": "3.4.0",
  "updatedAt": "2021-08-30T09:29:37.556Z",
  "devdoc": {
    "kind": "dev",
    "methods": {},
    "version": 1
  },
  "userdoc": {
    "kind": "user",
    "methods": {},
    "version": 1
  }
}