{
  "contractName": "ErrorHandlingPatternTryCatch",
  "abi": [
    {
      "anonymous": false,
      "inputs": [
        {
          "indexed": false,
          "internalType": "string",
          "name": "reason",
          "type": "string"
        }
      ],
      "name": "ErrorHandled",
      "type": "event"
    },
    {
      "inputs": [
        {
          "internalType": "address",
          "name": "",
          "type": "address"
        }
      ],
      "name": "childContracts",
      "outputs": [
        {
          "internalType": "contract ChildContract",
          "name": "",
          "type": "address"
        }
      ],
      "stateMutability": "view",
      "type": "function"
    },
    {
      "inputs": [],
      "name": "errorCount",
      "outputs": [
        {
          "internalType": "uint256",
          "name": "",
          "type": "uint256"
        }
      ],
      "stateMutability": "view",
      "type": "function"
    },
    {
      "inputs": [
        {
          "internalType": "address",
          "name": "_childOwner",
          "type": "address"
        }
      ],
      "name": "createCharitySplitter",
      "outputs": [],
      "stateMutability": "nonpayable",
      "type": "function"
    }
  ],
  "bytecode": "0x608060405234801561001057600080fd5b506105a3806100206000396000f3fe608060405234801561001057600080fd5b50600436106100415760003560e01c8063208b7bab1461004657806369dc8c87146100b4578063d38dbee6146100f8575b600080fd5b6100886004803603602081101561005c57600080fd5b81019080803573ffffffffffffffffffffffffffffffffffffffff169060200190929190505050610116565b604051808273ffffffffffffffffffffffffffffffffffffffff16815260200191505060405180910390f35b6100f6600480360360208110156100ca57600080fd5b81019080803573ffffffffffffffffffffffffffffffffffffffff169060200190929190505050610149565b005b6101006103ba565b6040518082815260200191505060405180910390f35b60006020528060005260406000206000915054906101000a900473ffffffffffffffffffffffffffffffffffffffff1681565b80604051610156906103c0565b808273ffffffffffffffffffffffffffffffffffffffff168152602001915050604051809103906000f080156101895760015b610338576101956103ea565b806101a05750610320565b6001600081548092919060010191905055506000336040516101c1906103c0565b808273ffffffffffffffffffffffffffffffffffffffff168152602001915050604051809103906000f0801580156101fd573d6000803e3d6000fd5b509050806000803373ffffffffffffffffffffffffffffffffffffffff1673ffffffffffffffffffffffffffffffffffffffff16815260200190815260200160002060006101000a81548173ffffffffffffffffffffffffffffffffffffffff021916908373ffffffffffffffffffffffffffffffffffffffff1602179055507f4f17d5cf0427b4fe5e5649c407d3021315cfaa7216c9e58c369ef3937c40801a826040518080602001828103825283818151815260200191508051906020019080838360005b838110156102df5780820151818401526020810190506102c4565b50505050905090810190601f16801561030c5780820380516001836020036101000a031916815260200191505b509250505060405180910390a15050610333565b6001600081548092919060010191905055505b6103b7565b806000803373ffffffffffffffffffffffffffffffffffffffff1673ffffffffffffffffffffffffffffffffffffffff16815260200190815260200160002060006101000a81548173ffffffffffffffffffffffffffffffffffffffff021916908373ffffffffffffffffffffffffffffffffffffffff160217905550505b50565b60015481565b60cd806104a183390190565b6000601f19601f8301169050919050565b60008160e01c9050919050565b600060443d10156103fa5761049d565b60046000803e61040b6000516103dd565b6308c379a0811461041c575061049d565b60405160043d036004823e80513d602482011167ffffffffffffffff821117156104485750505061049d565b808201805167ffffffffffffffff81111561046757505050505061049d565b8060208301013d85018111156104825750505050505061049d565b61048b826103cc565b60208401016040528296505050505050505b9056fe6080604052348015600f57600080fd5b5060405160cd38038060cd83398181016040526020811015602f57600080fd5b8101908080519060200190929190505050806000806101000a81548173ffffffffffffffffffffffffffffffffffffffff021916908373ffffffffffffffffffffffffffffffffffffffff16021790555050603f80608e6000396000f3fe6080604052600080fdfea2646970667358221220e9f472de4bc503cea7cc6597bdb78f001149fb7bc224bb53c563b226a5074ccc64736f6c63430007000033a2646970667358221220e7d1095a238d3bc349954ca1a29c87724a59d8924dc0ccfdeae2175bf7d0933364736f6c63430007000033",
  "immutableReferences": {},
  "source": "pragma solidity 0.7.0;\n\ncontract ChildContract {\n    address private owner;\n\n    constructor (address _owner) public {\n        owner = _owner;\n    }\n}\n\ncontract ErrorHandlingPatternTryCatch {\n    mapping (address => ChildContract) public childContracts;\n    uint public errorCount;\n    \n    event ErrorHandled(string reason);\n\n    function createCharitySplitter(address _childOwner) public {\n        try new ChildContract(_childOwner)\n            returns (ChildContract newChildContract) {\n                childContracts[msg.sender] = newChildContract;\n        } catch Error(string memory reason) {\n            errorCount++;\n            ChildContract newChildContract = new ChildContract(msg.sender);\n            childContracts[msg.sender] = newChildContract;\n            // Emit the error event\n            emit ErrorHandled(reason);\n        } catch {\n            errorCount++;\n        }\n    }\n}\n",
  "sourcePath": "/home/niklas/Documents/HIWI PATTERNS/smart-contract-dev-support/project-examples/ethereum/contracts/Idioms/Error-Handling Pattern/ErrorHandlingPatternTryCatch.sol",
  "compiler": {
    "name": "solc",
    "version": "0.7.0+commit.9e61f92b.Emscripten.clang"
  },
  "schemaVersion": "3.4.0",
  "updatedAt": "2021-08-30T09:29:37.557Z",
  "devdoc": {
    "kind": "dev",
    "methods": {},
    "version": 1
  },
  "userdoc": {
    "kind": "user",
    "methods": {},
    "version": 1
  }
}