{
  "contractName": "EventOrder",
  "abi": [
    {
      "inputs": [
        {
          "internalType": "uint256",
          "name": "_nextTransNum",
          "type": "uint256"
        }
      ],
      "name": "a",
      "outputs": [],
      "stateMutability": "nonpayable",
      "type": "function"
    }
  ],
  "bytecode": "0x60806040526000805534801561001457600080fd5b5061013e806100246000396000f3fe608060405234801561001057600080fd5b506004361061002b5760003560e01c8063f0fdf83414610030575b600080fd5b61005c6004803603602081101561004657600080fd5b810190808035906020019092919050505061005e565b005b8080600054146100b9576040517f08c379a000000000000000000000000000000000000000000000000000000000815260040180806020018281038252603b8152602001806100ce603b913960400191505060405180910390fd5b60016000808282540192505081905550505056fe43757272656e7420736d61727420636f6e747261637420737461746520646f6573206e6f74206d617463682074617267657465642073746174652ea2646970667358221220a522ef576a8e07bcda6afbfb4d5b5a8784da9081ddf874afb08a2b415a4df84764736f6c63430007000033",
  "immutableReferences": {},
  "source": "pragma solidity ^0.7.0;\n\ncontract EventOrderPattern {\n    uint256 transCounter = 0;\n\n    modifier transitionCounting(uint256 _nextTransNum){\n         require(transCounter == _nextTransNum,\n                \"Current smart contract state does not match targeted state.\");\n         transCounter += 1;\n         _;\n    }\n}\n\ncontract EventOrder is EventOrderPattern {\n\n    function a(uint _nextTransNum) public transitionCounting(_nextTransNum) {\n        // Code to be executed in a certain state\n    }\n}",
  "sourcePath": "/home/niklas/Documents/HIWI PATTERNS/smart-contract-dev-support/Design Patterns/Event-Ordering Pattern/EventOrderPattern.sol",
  "compiler": {
    "name": "solc",
    "version": "0.7.0+commit.9e61f92b.Emscripten.clang"
  },
  "schemaVersion": "3.4.0",
  "updatedAt": "2021-05-26T11:12:50.846Z",
  "devdoc": {
    "kind": "dev",
    "methods": {},
    "version": 1
  },
  "userdoc": {
    "kind": "user",
    "methods": {},
    "version": 1
  }
}