{
  "contractName": "ExternalCallPattern",
  "abi": [
    {
      "anonymous": false,
      "inputs": [
        {
          "indexed": false,
          "internalType": "string",
          "name": "message",
          "type": "string"
        }
      ],
      "name": "CallEvent",
      "type": "event"
    },
    {
      "anonymous": false,
      "inputs": [
        {
          "indexed": false,
          "internalType": "uint256",
          "name": "contractSize",
          "type": "uint256"
        }
      ],
      "name": "ContractSize",
      "type": "event"
    },
    {
      "anonymous": false,
      "inputs": [
        {
          "indexed": false,
          "internalType": "string",
          "name": "text",
          "type": "string"
        }
      ],
      "name": "Response",
      "type": "event"
    },
    {
      "inputs": [
        {
          "internalType": "address",
          "name": "_externalAddress",
          "type": "address"
        },
        {
          "internalType": "string",
          "name": "_text1",
          "type": "string"
        },
        {
          "internalType": "string",
          "name": "_text2",
          "type": "string"
        }
      ],
      "name": "doSomething",
      "outputs": [],
      "stateMutability": "nonpayable",
      "type": "function"
    }
  ],
  "bytecode": "0x608060405234801561001057600080fd5b50610569806100206000396000f3fe608060405234801561001057600080fd5b506004361061002b5760003560e01c8063eef7d29114610030575b600080fd5b6101a06004803603606081101561004657600080fd5b81019080803573ffffffffffffffffffffffffffffffffffffffff1690602001909291908035906020019064010000000081111561008357600080fd5b82018360208201111561009557600080fd5b803590602001918460018302840111640100000000831117156100b757600080fd5b91908080601f016020809104026020016040519081016040528093929190818152602001838380828437600081840152601f19601f8201169050808301925050505050505091929192908035906020019064010000000081111561011a57600080fd5b82018360208201111561012c57600080fd5b8035906020019184600183028401116401000000008311171561014e57600080fd5b91908080601f016020809104026020016040519081016040528093929190818152602001838380828437600081840152601f19601f8201169050808301925050505050505091929192905050506101a2565b005b6101ab836104b1565b610200576040517f08c379a000000000000000000000000000000000000000000000000000000000815260040180806020018281038252602d815260200180610507602d913960400191505060405180910390fd5b7fbcf0c63df46b2bad9de6bd4c43440c516d685a0c7b6cc9077132701c4747bacb6040518080602001828103825260158152602001807f45787465726e616c2043616c6c2073746172746564000000000000000000000081525060200191505060405180910390a1600083905060008173ffffffffffffffffffffffffffffffffffffffff166387c6b23c85856040518363ffffffff1660e01b8152600401808060200180602001838103835285818151815260200191508051906020019080838360005b838110156102e05780820151818401526020810190506102c5565b50505050905090810190601f16801561030d5780820380516001836020036101000a031916815260200191505b50838103825284818151815260200191508051906020019080838360005b8381101561034657808201518184015260208101905061032b565b50505050905090810190601f1680156103735780820380516001836020036101000a031916815260200191505b5094505050505060206040518083038186803b15801561039257600080fd5b505afa1580156103a6573d6000803e3d6000fd5b505050506040513d60208110156103bc57600080fd5b8101908080519060200190929190505050905080610442576040517f08c379a00000000000000000000000000000000000000000000000000000000081526004018080602001828103825260148152602001807f546578747320617265204e4f5420657175616c2e00000000000000000000000081525060200191505060405180910390fd5b7fb749d4cbef5280ab440645a46bbada3f52c0d015210cfceabd4e5b4e49195f776040518080602001828103825260108152602001807f54657874732061726520657175616c2e0000000000000000000000000000000081525060200191505060405180910390a15050505050565b600080823b90507fcd8fba086973e31e4ec108a1758d54fd02d56fbb1b7c0fc52aa259a4a372b18d816040518082815260200191505060405180910390a1600081116104fc57600080fd5b600191505091905056fe4e6f20736d61727420636f6e747261637420617661696c61626c6520617420676976656e206164647265737321a26469706673582212203063a942966799866a2183d8598f23d52ef02291910960822ea96c19e1d41c0364736f6c63430007000033",
  "immutableReferences": {},
  "source": "pragma solidity 0.7.0;\n\n// Definition of the interface of ExternalContract for easier integration into ExternalCallPattern\nimport './ExternalContract.sol';\n\ncontract ExternalCallPattern {\n    event Response(string text);\n\n    //debugging\n    event CallEvent(string message);\n    event ContractSize(uint contractSize);\n\n    function isContract(address _externalAddress) internal returns (bool) { //view internal\n        uint size;\n        assembly { size := extcodesize(_externalAddress) }\n        emit ContractSize(size);\n        require (size > 0);\n        return true;\n    }\n\n    function doSomething(address _externalAddress, string memory _text1,\n      string memory _text2) public {\n        // Check if a smart contract is available at the given address to avoid, for example, asset loss when sending asset\n        require(isContract(_externalAddress), \"No smart contract available at given address!\");\n\n        emit CallEvent(\"External Call started\");\n        // Instantiate ExternalContract to make direct calls with revert(…) in case of failures in the function execution\n        ExternalContract c = ExternalContract(_externalAddress);\n        bool equal = c.externalFunction(_text1, _text2);    \n   \n        // Check return value of c.externalFunction(…)\n        require(equal, \"Texts are NOT equal.\");\n        emit Response(\"Texts are equal.\");\n    }\n}\n",
  "sourcePath": "/home/niklas/Documents/HIWI PATTERNS/smart-contract-dev-support/project-examples/ethereum/contracts/Idioms/External-Call Pattern/ExternalCallPattern.sol",
  "compiler": {
    "name": "solc",
    "version": "0.7.0+commit.9e61f92b.Emscripten.clang"
  },
  "schemaVersion": "3.4.0",
  "updatedAt": "2021-08-30T09:29:37.559Z",
  "devdoc": {
    "kind": "dev",
    "methods": {},
    "version": 1
  },
  "userdoc": {
    "kind": "user",
    "methods": {},
    "version": 1
  }
}