{
  "contractName": "ExternalCallPattern",
  "abi": [
    {
      "anonymous": false,
      "inputs": [
        {
          "indexed": false,
          "internalType": "string",
          "name": "text",
          "type": "string"
        }
      ],
      "name": "Response",
      "type": "event"
    },
    {
      "inputs": [
        {
          "internalType": "address",
          "name": "_externalAddress",
          "type": "address"
        },
        {
          "internalType": "string",
          "name": "_text1",
          "type": "string"
        },
        {
          "internalType": "string",
          "name": "_text2",
          "type": "string"
        }
      ],
      "name": "doSomething",
      "outputs": [],
      "stateMutability": "nonpayable",
      "type": "function"
    }
  ],
  "bytecode": "0x608060405234801561001057600080fd5b506104ca806100206000396000f3fe608060405234801561001057600080fd5b506004361061002b5760003560e01c8063eef7d29114610030575b600080fd5b6101a06004803603606081101561004657600080fd5b81019080803573ffffffffffffffffffffffffffffffffffffffff1690602001909291908035906020019064010000000081111561008357600080fd5b82018360208201111561009557600080fd5b803590602001918460018302840111640100000000831117156100b757600080fd5b91908080601f016020809104026020016040519081016040528093929190818152602001838380828437600081840152601f19601f8201169050808301925050505050505091929192908035906020019064010000000081111561011a57600080fd5b82018360208201111561012c57600080fd5b8035906020019184600183028401116401000000008311171561014e57600080fd5b91908080601f016020809104026020016040519081016040528093929190818152602001838380828437600081840152601f19601f8201169050808301925050505050505091929192905050506101a2565b005b6101ab83610449565b610200576040517f08c379a000000000000000000000000000000000000000000000000000000000815260040180806020018281038252602d815260200180610468602d913960400191505060405180910390fd5b600083905060008173ffffffffffffffffffffffffffffffffffffffff166387c6b23c85856040518363ffffffff1660e01b8152600401808060200180602001838103835285818151815260200191508051906020019080838360005b8381101561027857808201518184015260208101905061025d565b50505050905090810190601f1680156102a55780820380516001836020036101000a031916815260200191505b50838103825284818151815260200191508051906020019080838360005b838110156102de5780820151818401526020810190506102c3565b50505050905090810190601f16801561030b5780820380516001836020036101000a031916815260200191505b5094505050505060206040518083038186803b15801561032a57600080fd5b505afa15801561033e573d6000803e3d6000fd5b505050506040513d602081101561035457600080fd5b81019080805190602001909291905050509050806103da576040517f08c379a00000000000000000000000000000000000000000000000000000000081526004018080602001828103825260148152602001807f546578747320617265204e4f5420657175616c2e00000000000000000000000081525060200191505060405180910390fd5b7fb749d4cbef5280ab440645a46bbada3f52c0d015210cfceabd4e5b4e49195f776040518080602001828103825260108152602001807f54657874732061726520657175616c2e0000000000000000000000000000000081525060200191505060405180910390a15050505050565b600080823b90506000811161045d57600080fd5b600191505091905056fe4e6f20736d61727420636f6e747261637420617661696c61626c6520617420676976656e206164647265737321a26469706673582212209e9a8f038f7e1afbe2647645bd850eda100f0365d55bfe776a9168d00184bc7764736f6c63430007000033",
  "immutableReferences": {},
  "source": "pragma solidity 0.7.0;\n\n// Definition of the interface of ExternalContract for easier integration into ExternalCallPattern\ncontract ExternalContract {\n    function externalFunction(string memory _text1, string memory _text2)\n       public pure returns (bool) {\n        return keccak256(bytes(_text1)) == keccak256(bytes(_text2));\n    }\n}\n\ncontract ExternalCallPattern {\n    event Response(string text);\n\n    function isContract(address _externalAddress) view internal returns (bool) {\n        uint size;\n        assembly { size := extcodesize(_externalAddress) }\n        require (size > 0);\n        return true;\n    }\n\n    function doSomething(address _externalAddress, string memory _text1,\n      string memory _text2) public {\n        // Check if a smart contract is available at the given address to avoid, for example, asset loss when sending asset\n        require(isContract(_externalAddress), \"No smart contract available at given address!\");\n\n        // Instantiate ExternalContract to make direct calls with revert(…) in case of failures in the function execution\n        ExternalContract c = ExternalContract(_externalAddress);\n        bool equal = c.externalFunction(_text1, _text2);    \n   \n        // Check return value of c.externalFunction(…)\n        require(equal, \"Texts are NOT equal.\");\n        emit Response(\"Texts are equal.\");\n    }\n}\n",
  "sourcePath": "/home/niklas/Documents/HIWI PATTERNS/smart-contract-dev-support/Idioms/External-Call Pattern/ExternalCallPattern.sol",
  "compiler": {
    "name": "solc",
    "version": "0.7.0+commit.9e61f92b.Emscripten.clang"
  },
  "schemaVersion": "3.4.0",
  "updatedAt": "2021-05-26T11:12:50.858Z",
  "devdoc": {
    "kind": "dev",
    "methods": {},
    "version": 1
  },
  "userdoc": {
    "kind": "user",
    "methods": {},
    "version": 1
  }
}