{
  "contractName": "ExternalContract",
  "abi": [
    {
      "inputs": [
        {
          "internalType": "string",
          "name": "_text1",
          "type": "string"
        },
        {
          "internalType": "string",
          "name": "_text2",
          "type": "string"
        }
      ],
      "name": "externalFunction",
      "outputs": [
        {
          "internalType": "bool",
          "name": "",
          "type": "bool"
        }
      ],
      "stateMutability": "pure",
      "type": "function"
    }
  ],
  "bytecode": "0x608060405234801561001057600080fd5b506101e9806100206000396000f3fe608060405234801561001057600080fd5b506004361061002b5760003560e01c806387c6b23c14610030575b600080fd5b6101806004803603604081101561004657600080fd5b810190808035906020019064010000000081111561006357600080fd5b82018360208201111561007557600080fd5b8035906020019184600183028401116401000000008311171561009757600080fd5b91908080601f016020809104026020016040519081016040528093929190818152602001838380828437600081840152601f19601f820116905080830192505050505050509192919290803590602001906401000000008111156100fa57600080fd5b82018360208201111561010c57600080fd5b8035906020019184600183028401116401000000008311171561012e57600080fd5b91908080601f016020809104026020016040519081016040528093929190818152602001838380828437600081840152601f19601f820116905080830192505050505050509192919290505050610198565b60405180821515815260200191505060405180910390f35b6000818051906020012083805190602001201490509291505056fea264697066735822122011b73c430e9cc739c450d0f9606006190fc27041addd464f132a83de666eef7664736f6c63430007000033",
  "immutableReferences": {},
  "source": "pragma solidity 0.7.0;\n\ncontract ExternalContract {\n    function externalFunction(string memory _text1, string memory _text2)\n       public pure returns (bool) {\n        return keccak256(bytes(_text1)) == keccak256(bytes(_text2));\n    }\n}\n",
  "sourcePath": "/home/niklas/Documents/HIWI PATTERNS/smart-contract-dev-support/Idioms/External-Call Pattern/ExternalCallAntipattern_1.sol",
  "compiler": {
    "name": "solc",
    "version": "0.7.0+commit.9e61f92b.Emscripten.clang"
  },
  "schemaVersion": "3.4.0",
  "updatedAt": "2021-05-26T11:22:58.102Z",
  "devdoc": {
    "kind": "dev",
    "methods": {},
    "version": 1
  },
  "userdoc": {
    "kind": "user",
    "methods": {},
    "version": 1
  }
}