{
  "contractName": "GuardingPattern",
  "abi": [
    {
      "inputs": [],
      "stateMutability": "nonpayable",
      "type": "constructor"
    },
    {
      "inputs": [],
      "name": "owner",
      "outputs": [
        {
          "internalType": "address",
          "name": "",
          "type": "address"
        }
      ],
      "stateMutability": "view",
      "type": "function"
    },
    {
      "inputs": [
        {
          "internalType": "address",
          "name": "_newOwner",
          "type": "address"
        }
      ],
      "name": "changeOwner",
      "outputs": [],
      "stateMutability": "nonpayable",
      "type": "function"
    }
  ],
  "bytecode": "0x608060405234801561001057600080fd5b50336000806101000a81548173ffffffffffffffffffffffffffffffffffffffff021916908373ffffffffffffffffffffffffffffffffffffffff160217905550610213806100606000396000f3fe608060405234801561001057600080fd5b50600436106100365760003560e01c80638da5cb5b1461003b578063a6f9dae11461006f575b600080fd5b6100436100b3565b604051808273ffffffffffffffffffffffffffffffffffffffff16815260200191505060405180910390f35b6100b16004803603602081101561008557600080fd5b81019080803573ffffffffffffffffffffffffffffffffffffffff1690602001909291905050506100d7565b005b60008054906101000a900473ffffffffffffffffffffffffffffffffffffffff1681565b338073ffffffffffffffffffffffffffffffffffffffff1660008054906101000a900473ffffffffffffffffffffffffffffffffffffffff1673ffffffffffffffffffffffffffffffffffffffff1614610199576040517f08c379a000000000000000000000000000000000000000000000000000000000815260040180806020018281038252600f8152602001807f4e6f7420617574686f72697a656421000000000000000000000000000000000081525060200191505060405180910390fd5b816000806101000a81548173ffffffffffffffffffffffffffffffffffffffff021916908373ffffffffffffffffffffffffffffffffffffffff160217905550505056fea2646970667358221220f5441cb7a11dafcfb36da58d74914324425974380a82624baa35e24bf8d496d064736f6c63430007000033",
  "immutableReferences": {},
  "source": "pragma solidity 0.7.0;\n\ncontract GuardingPattern {\n    address public owner;\n\n    // Use a modifier to define your guarding conditions\n    modifier onlyBy(address _account){\n        require(owner == _account, \"Not authorized!\");\n        _;\n    }\n\n    constructor(){\n        owner = msg.sender;\n    }\n\n\n    function changeOwner(address _newOwner) public\n        onlyBy(msg.sender){\n        owner = _newOwner;\n    }\n}\n",
  "sourcePath": "/home/niklas/Documents/HIWI PATTERNS/smart-contract-dev-support/project-examples/ethereum/contracts/Idioms/Guarding Pattern/GuardingPattern.sol",
  "compiler": {
    "name": "solc",
    "version": "0.7.0+commit.9e61f92b.Emscripten.clang"
  },
  "schemaVersion": "3.4.0",
  "updatedAt": "2021-08-30T09:29:37.560Z",
  "devdoc": {
    "kind": "dev",
    "methods": {},
    "version": 1
  },
  "userdoc": {
    "kind": "user",
    "methods": {},
    "version": 1
  }
}