{
  "contractName": "LogicContract",
  "abi": [
    {
      "inputs": [],
      "stateMutability": "nonpayable",
      "type": "constructor"
    },
    {
      "inputs": [],
      "name": "highest_bidder",
      "outputs": [
        {
          "internalType": "address",
          "name": "",
          "type": "address"
        }
      ],
      "stateMutability": "view",
      "type": "function"
    },
    {
      "inputs": [
        {
          "internalType": "address",
          "name": "_address",
          "type": "address"
        }
      ],
      "name": "changeToken",
      "outputs": [],
      "stateMutability": "nonpayable",
      "type": "function"
    },
    {
      "inputs": [
        {
          "internalType": "uint256",
          "name": "bid",
          "type": "uint256"
        }
      ],
      "name": "auction",
      "outputs": [],
      "stateMutability": "nonpayable",
      "type": "function"
    }
  ],
  "bytecode": "0x608060405234801561001057600080fd5b50336000806101000a81548173ffffffffffffffffffffffffffffffffffffffff021916908373ffffffffffffffffffffffffffffffffffffffff1602179055506103df806100606000396000f3fe608060405234801561001057600080fd5b50600436106100415760003560e01c80631200617f1461004657806366829b1614610074578063bd9215f4146100b8575b600080fd5b6100726004803603602081101561005c57600080fd5b81019080803590602001909291905050506100ec565b005b6100b66004803603602081101561008a57600080fd5b81019080803573ffffffffffffffffffffffffffffffffffffffff1690602001909291905050506102e7565b005b6100c0610383565b604051808273ffffffffffffffffffffffffffffffffffffffff16815260200191505060405180910390f35b80600160009054906101000a900473ffffffffffffffffffffffffffffffffffffffff1673ffffffffffffffffffffffffffffffffffffffff166327e235e3336040518263ffffffff1660e01b8152600401808273ffffffffffffffffffffffffffffffffffffffff16815260200191505060206040518083038186803b15801561017657600080fd5b505afa15801561018a573d6000803e3d6000fd5b505050506040513d60208110156101a057600080fd5b81019080805190602001909291905050501015610225576040517f08c379a00000000000000000000000000000000000000000000000000000000081526004018080602001828103825260158152602001807f496e73756666696369656e742062616c616e63652e000000000000000000000081525060200191505060405180910390fd5b600354811161029c576040517f08c379a00000000000000000000000000000000000000000000000000000000081526004018080602001828103825260148152602001807f596f75722062696420697320746f6f206c6f772e00000000000000000000000081525060200191505060405180910390fd5b33600260006101000a81548173ffffffffffffffffffffffffffffffffffffffff021916908373ffffffffffffffffffffffffffffffffffffffff1602179055508060038190555050565b60008054906101000a900473ffffffffffffffffffffffffffffffffffffffff1673ffffffffffffffffffffffffffffffffffffffff163373ffffffffffffffffffffffffffffffffffffffff161461033f57600080fd5b80600160006101000a81548173ffffffffffffffffffffffffffffffffffffffff021916908373ffffffffffffffffffffffffffffffffffffffff16021790555050565b600260009054906101000a900473ffffffffffffffffffffffffffffffffffffffff168156fea2646970667358221220408a8b19bf939f2bebd7add9168c0d85a27b310cab800b730b6d6d092076d70d64736f6c63430007000033",
  "immutableReferences": {},
  "source": "pragma solidity 0.7.0;\n\ncontract TokenPattern {\n    address public minter;\n    mapping (address => uint) public balances;\n    \n    event Sent(address from, address to, uint amount);\n\n    constructor() public {\n        minter = msg.sender;\n    }\n\n    function mint(address receiver, uint amount) public returns(uint256) {\n        require(msg.sender == minter);\n        \n        balances[receiver] += amount;\n        return balances[receiver];\n    }\n\n    function send(address receiver, uint amount) public returns(bool) {\n        require(amount <= balances[msg.sender], \"Insufficient balance.\");\n        \n        balances[msg.sender] -= amount;\n        balances[receiver] += amount;\n        emit Sent(msg.sender, receiver, amount);\n        return true;\n    }\n\n}\n\ncontract LogicContract {\n    address owner;\n    TokenPattern t;\n    address public highest_bidder;\n    uint256 highest_bid;\n\n    constructor() public {\n        owner = msg.sender;\n    }\n    \n    function changeToken (address _address) public {\n        require(msg.sender == owner);\n        t = TokenPattern(_address);\n    }\n\n    function auction(uint256 bid) public {\n        require(t.balances(msg.sender) >= bid, \"Insufficient balance.\");\n        require(bid>highest_bid, \"Your bid is too low.\");\n        \n        highest_bidder=msg.sender;\n        highest_bid=bid;\n    }\n}    \n",
  "sourcePath": "/home/niklas/Documents/HIWI PATTERNS/smart-contract-dev-support/Idioms/Token Pattern/TokenPattern.sol",
  "compiler": {
    "name": "solc",
    "version": "0.7.0+commit.9e61f92b.Emscripten.clang"
  },
  "schemaVersion": "3.4.0",
  "updatedAt": "2021-05-26T11:12:50.861Z",
  "devdoc": {
    "kind": "dev",
    "methods": {},
    "version": 1
  },
  "userdoc": {
    "kind": "user",
    "methods": {},
    "version": 1
  }
}