{
  "contractName": "OverflowAntipattern",
  "abi": [
    {
      "anonymous": false,
      "inputs": [
        {
          "indexed": false,
          "internalType": "uint256",
          "name": "number",
          "type": "uint256"
        }
      ],
      "name": "LoopCompleted",
      "type": "event"
    },
    {
      "inputs": [],
      "name": "runLoop",
      "outputs": [],
      "stateMutability": "nonpayable",
      "type": "function"
    }
  ],
  "bytecode": "0x608060405260008055348015601357600080fd5b5060d9806100226000396000f3fe6080604052348015600f57600080fd5b506004361060285760003560e01c806325609bee14602d575b600080fd5b60336035565b005b60005b6101028160ff1610156067576001600080828254019250508190555061010460005414156063576067565b6038565b507ff97a7f1b865c1b2075f147b2f5146c369d5f4fee9aef4a1bc3b47601d668b3cb6000546040518082815260200191505060405180910390a156fea2646970667358221220aff7799707dc6408562c7ad613a70df2972e202b60d1964d83ccc401a7a3f36664736f6c63430007000033",
  "immutableReferences": {},
  "source": "pragma solidity 0.7.0;\n\ncontract OverflowAntipattern {\n    uint256 counter = 0;\n    \n    event LoopCompleted(uint256 number);\n    \n    function runLoop() public {\n       for (uint8 i=0; i < 258 ; i+1){\n           counter += 1; \n           // The following condition will never validate true\n           if (counter==260){\n               break;\n           }\n       }\n        \n       emit LoopCompleted (counter);\n    }\n}",
  "sourcePath": "/home/niklas/Documents/HIWI PATTERNS/smart-contract-dev-support/Idioms/Overflow Pattern/OverflowAntipattern.sol",
  "compiler": {
    "name": "solc",
    "version": "0.7.0+commit.9e61f92b.Emscripten.clang"
  },
  "schemaVersion": "3.4.0",
  "updatedAt": "2021-05-26T11:12:50.859Z",
  "devdoc": {
    "kind": "dev",
    "methods": {},
    "version": 1
  },
  "userdoc": {
    "kind": "user",
    "methods": {},
    "version": 1
  }
}