{
  "contractName": "ReplayProtectionPattern",
  "abi": [
    {
      "inputs": [],
      "stateMutability": "nonpayable",
      "type": "constructor"
    },
    {
      "inputs": [
        {
          "internalType": "address",
          "name": "_from",
          "type": "address"
        },
        {
          "internalType": "address",
          "name": "_to",
          "type": "address"
        },
        {
          "internalType": "uint256",
          "name": "_amount",
          "type": "uint256"
        },
        {
          "internalType": "uint256",
          "name": "_executionNonce",
          "type": "uint256"
        },
        {
          "internalType": "bytes",
          "name": "_signature",
          "type": "bytes"
        }
      ],
      "name": "transferTokens",
      "outputs": [],
      "stateMutability": "nonpayable",
      "type": "function"
    },
    {
      "inputs": [],
      "name": "buyTokens",
      "outputs": [],
      "stateMutability": "payable",
      "type": "function"
    },
    {
      "inputs": [],
      "name": "withdrawTokens",
      "outputs": [],
      "stateMutability": "nonpayable",
      "type": "function"
    }
  ],
  "bytecode": "0x60806040526000805534801561001457600080fd5b5033600260006101000a81548173ffffffffffffffffffffffffffffffffffffffff021916908373ffffffffffffffffffffffffffffffffffffffff160217905550610b39806100656000396000f3fe6080604052600436106100345760003560e01c80638d8f2adb14610039578063cbc20fe014610050578063d0febe4c1461012a575b600080fd5b34801561004557600080fd5b5061004e610134565b005b34801561005c57600080fd5b50610128600480360360a081101561007357600080fd5b81019080803573ffffffffffffffffffffffffffffffffffffffff169060200190929190803573ffffffffffffffffffffffffffffffffffffffff1690602001909291908035906020019092919080359060200190929190803590602001906401000000008111156100e457600080fd5b8201836020820111156100f657600080fd5b8035906020019184600183028401116401000000008311171561011857600080fd5b90919293919293905050506102bc565b005b610132610771565b005b6000600160003373ffffffffffffffffffffffffffffffffffffffff1673ffffffffffffffffffffffffffffffffffffffff16815260200190815260200160002054116101e9576040517f08c379a00000000000000000000000000000000000000000000000000000000081526004018080602001828103825260138152602001807f4e6f2066756e647320617661696c61626c65210000000000000000000000000081525060200191505060405180910390fd5b6000600160003373ffffffffffffffffffffffffffffffffffffffff1673ffffffffffffffffffffffffffffffffffffffff1681526020019081526020016000205490506000600160003373ffffffffffffffffffffffffffffffffffffffff1673ffffffffffffffffffffffffffffffffffffffff168152602001908152602001600020819055503373ffffffffffffffffffffffffffffffffffffffff166108fc829081150290604051600060405180830381858888f193505050501580156102b8573d6000803e3d6000fd5b5050565b85858585858560005483101580156102dc5750633b9aca00600054018311155b61034e576040517f08c379a00000000000000000000000000000000000000000000000000000000081526004018080602001828103825260188152602001807f496e76616c696420657865637574696f6e206e6f6e636521000000000000000081525060200191505060405180910390fd5b600061042f8787873088604051602001808673ffffffffffffffffffffffffffffffffffffffff1660601b81526014018573ffffffffffffffffffffffffffffffffffffffff1660601b81526014018481526020018373ffffffffffffffffffffffffffffffffffffffff1660601b8152601401828152602001955050505050506040516020818303038152906040528051906020012084848080601f016020809104026020016040519081016040528093929190818152602001838380828437600081840152601f19601f820116905080830192505050505050506107f8565b9050600260009054906101000a900473ffffffffffffffffffffffffffffffffffffffff1673ffffffffffffffffffffffffffffffffffffffff168173ffffffffffffffffffffffffffffffffffffffff16146104d7576040517f08c379a000000000000000000000000000000000000000000000000000000000815260040180806020018281038252602f815260200180610ab3602f913960400191505060405180910390fd5b600184016000819055508a600160008f73ffffffffffffffffffffffffffffffffffffffff1673ffffffffffffffffffffffffffffffffffffffff1681526020019081526020016000205411610595576040517f08c379a000000000000000000000000000000000000000000000000000000000815260040180806020018281038252601b8152602001807f4e6f7420656e6f7567682066756e647320617661696c61626c6521000000000081525060200191505060405180910390fd5b600260009054906101000a900473ffffffffffffffffffffffffffffffffffffffff1673ffffffffffffffffffffffffffffffffffffffff163373ffffffffffffffffffffffffffffffffffffffff1614610658576040517f08c379a00000000000000000000000000000000000000000000000000000000081526004018080602001828103825260168152602001807f596f7520617265206e6f7420746865206f776e6572210000000000000000000081525060200191505060405180910390fd5b8a600160008f73ffffffffffffffffffffffffffffffffffffffff1673ffffffffffffffffffffffffffffffffffffffff1681526020019081526020016000205403600160008f73ffffffffffffffffffffffffffffffffffffffff1673ffffffffffffffffffffffffffffffffffffffff168152602001908152602001600020819055508a600160008e73ffffffffffffffffffffffffffffffffffffffff1673ffffffffffffffffffffffffffffffffffffffff1681526020019081526020016000205401600160008e73ffffffffffffffffffffffffffffffffffffffff1673ffffffffffffffffffffffffffffffffffffffff1681526020019081526020016000208190555050505050505050505050505050565b34600160003373ffffffffffffffffffffffffffffffffffffffff1673ffffffffffffffffffffffffffffffffffffffff1681526020019081526020016000205401600160003373ffffffffffffffffffffffffffffffffffffffff1673ffffffffffffffffffffffffffffffffffffffff16815260200190815260200160002081905550565b60006041825114610871576040517f08c379a000000000000000000000000000000000000000000000000000000000815260040180806020018281038252601f8152602001807f45434453413a20696e76616c6964207369676e6174757265206c656e6774680081525060200191505060405180910390fd5b60008060006020850151925060408501519150606085015160001a90507f7fffffffffffffffffffffffffffffff5d576e7357a4501ddfe92f46681b20a08260001c111561090a576040517f08c379a0000000000000000000000000000000000000000000000000000000008152600401808060200182810382526022815260200180610a916022913960400191505060405180910390fd5b601b8160ff16141580156109225750601c8160ff1614155b15610978576040517f08c379a0000000000000000000000000000000000000000000000000000000008152600401808060200182810382526022815260200180610ae26022913960400191505060405180910390fd5b600060018783868660405160008152602001604052604051808581526020018460ff1681526020018381526020018281526020019450505050506020604051602081039080840390855afa1580156109d4573d6000803e3d6000fd5b505050602060405103519050600073ffffffffffffffffffffffffffffffffffffffff168173ffffffffffffffffffffffffffffffffffffffff161415610a83576040517f08c379a00000000000000000000000000000000000000000000000000000000081526004018080602001828103825260188152602001807f45434453413a20696e76616c6964207369676e6174757265000000000000000081525060200191505060405180910390fd5b809450505050509291505056fe45434453413a20696e76616c6964207369676e6174757265202773272076616c7565696e76616c6964207369676e6174757265202f2077726f6e67207369676e6572202f2077726f6e67206e6f6e63652e45434453413a20696e76616c6964207369676e6174757265202776272076616c7565a2646970667358221220e7d3ab261b26d9171694d568422a8d89cf759764cc64a0bf1a227a799c92132064736f6c63430007000033",
  "immutableReferences": {},
  "source": "pragma solidity 0.7.0;\n\nimport \"./ECDSA.sol\";\n\ncontract ReplayProtectionPattern{\n    uint256 private executionNonce = 0;\n    mapping(address => uint256) private balances;\n    \n    address owner;\n    \n    modifier replayProtection(address _from, address _to,\n        uint256 _amount, uint256 _executionNonce, bytes calldata _signature) {\n        // Limit the number of execution nonces that can be skipped\n        require(_executionNonce >= executionNonce && _executionNonce <= executionNonce + 1e9,\n            \"Invalid execution nonce!\");\n        \n        // Check signature\n        address signer = ECDSA.recover(\n            keccak256(abi.encodePacked(_from, _to, _amount, address(this), _executionNonce)), _signature\n        );\n        require(signer == owner, \"invalid signature / wrong signer / wrong nonce.\");\n        \n        // Increment the stored nonce\n        executionNonce = _executionNonce + 1;\n        _;\n    }\n\n    constructor() {\n        owner = msg.sender;\n    }\n\n    function transferTokens(address _from, address _to, uint256 _amount, uint256 _executionNonce, bytes calldata _signature)\n        external replayProtection(_from, _to, _amount, _executionNonce, _signature) {\n        require(balances[_from] > _amount, \"Not enough funds available!\");\n        require(msg.sender == owner, \"You are not the owner!\");\n        balances[_from] = balances[_from] - _amount;\n        balances[_to] = balances[_to] + _amount;\n    }\n\n    function buyTokens() external payable {\n        balances[msg.sender] = balances[msg.sender] + msg.value;\n    }\n    \n    function withdrawTokens() external {\n        require(balances[msg.sender] > 0, \"No funds available!\");\n        uint256 amount = balances[msg.sender];\n        balances[msg.sender] = 0;\n        msg.sender.transfer(amount);\n    }\n}\n",
  "sourcePath": "/home/niklas/Documents/HIWI PATTERNS/smart-contract-dev-support/project-examples/ethereum/contracts/Design Patterns/Replay-Protection Pattern/ReplayProtectionPattern.sol",
  "compiler": {
    "name": "solc",
    "version": "0.7.0+commit.9e61f92b.Emscripten.clang"
  },
  "schemaVersion": "3.4.0",
  "updatedAt": "2021-06-10T07:34:01.563Z",
  "devdoc": {
    "kind": "dev",
    "methods": {},
    "version": 1
  },
  "userdoc": {
    "kind": "user",
    "methods": {},
    "version": 1
  }
}