{
  "contractName": "ReplayProtectionAntipattern",
  "abi": [
    {
      "inputs": [],
      "stateMutability": "nonpayable",
      "type": "constructor"
    },
    {
      "inputs": [
        {
          "internalType": "address",
          "name": "_from",
          "type": "address"
        },
        {
          "internalType": "address",
          "name": "_to",
          "type": "address"
        },
        {
          "internalType": "uint256",
          "name": "_amount",
          "type": "uint256"
        }
      ],
      "name": "transferTokens",
      "outputs": [],
      "stateMutability": "nonpayable",
      "type": "function"
    },
    {
      "inputs": [],
      "name": "buyTokens",
      "outputs": [],
      "stateMutability": "payable",
      "type": "function"
    },
    {
      "inputs": [],
      "name": "withdrawTokens",
      "outputs": [],
      "stateMutability": "payable",
      "type": "function"
    }
  ],
  "bytecode": "0x608060405234801561001057600080fd5b5033600160006101000a81548173ffffffffffffffffffffffffffffffffffffffff021916908373ffffffffffffffffffffffffffffffffffffffff160217905550610589806100616000396000f3fe6080604052600436106100345760003560e01c80638d8f2adb14610039578063a64b6e5f14610043578063d0febe4c146100be575b600080fd5b6100416100c8565b005b34801561004f57600080fd5b506100bc6004803603606081101561006657600080fd5b81019080803573ffffffffffffffffffffffffffffffffffffffff169060200190929190803573ffffffffffffffffffffffffffffffffffffffff1690602001909291908035906020019092919050505061024d565b005b6100c66104ce565b005b60008060003373ffffffffffffffffffffffffffffffffffffffff1673ffffffffffffffffffffffffffffffffffffffff168152602001908152602001600020541161017c576040517f08c379a00000000000000000000000000000000000000000000000000000000081526004018080602001828103825260138152602001807f4e6f2066756e647320617661696c61626c65210000000000000000000000000081525060200191505060405180910390fd5b60008060003373ffffffffffffffffffffffffffffffffffffffff1673ffffffffffffffffffffffffffffffffffffffff16815260200190815260200160002054905060008060003373ffffffffffffffffffffffffffffffffffffffff1673ffffffffffffffffffffffffffffffffffffffff168152602001908152602001600020819055503373ffffffffffffffffffffffffffffffffffffffff166108fc829081150290604051600060405180830381858888f19350505050158015610249573d6000803e3d6000fd5b5050565b806000808573ffffffffffffffffffffffffffffffffffffffff1673ffffffffffffffffffffffffffffffffffffffff1681526020019081526020016000205411610300576040517f08c379a000000000000000000000000000000000000000000000000000000000815260040180806020018281038252601b8152602001807f4e6f7420656e6f7567682066756e647320617661696c61626c6521000000000081525060200191505060405180910390fd5b600160009054906101000a900473ffffffffffffffffffffffffffffffffffffffff1673ffffffffffffffffffffffffffffffffffffffff163373ffffffffffffffffffffffffffffffffffffffff16146103c3576040517f08c379a00000000000000000000000000000000000000000000000000000000081526004018080602001828103825260168152602001807f596f7520617265206e6f7420746865206f776e6572210000000000000000000081525060200191505060405180910390fd5b806000808573ffffffffffffffffffffffffffffffffffffffff1673ffffffffffffffffffffffffffffffffffffffff16815260200190815260200160002054036000808573ffffffffffffffffffffffffffffffffffffffff1673ffffffffffffffffffffffffffffffffffffffff16815260200190815260200160002081905550806000808473ffffffffffffffffffffffffffffffffffffffff1673ffffffffffffffffffffffffffffffffffffffff16815260200190815260200160002054016000808473ffffffffffffffffffffffffffffffffffffffff1673ffffffffffffffffffffffffffffffffffffffff16815260200190815260200160002081905550505050565b346000803373ffffffffffffffffffffffffffffffffffffffff1673ffffffffffffffffffffffffffffffffffffffff16815260200190815260200160002054016000803373ffffffffffffffffffffffffffffffffffffffff1673ffffffffffffffffffffffffffffffffffffffff1681526020019081526020016000208190555056fea264697066735822122054fd7717a2a8b7aefbe6493930130392a23da5c6b3a7bf4124de6ca210eaedc864736f6c63430007000033",
  "immutableReferences": {},
  "source": "pragma solidity 0.7.0;\n\ncontract ReplayProtectionAntipattern{\n    mapping(address => uint256) private balances;\n    \n    address owner;\n    \n    constructor() {\n        owner = msg.sender;\n    }\n\n    function transferTokens(address _from, address _to, uint256 _amount) external {\n        require(balances[_from] > _amount, \"Not enough funds available!\");\n        require(msg.sender == owner, \"You are not the owner!\");\n        balances[_from] = balances[_from] - _amount;\n        balances[_to] = balances[_to] + _amount;\n    }\n\n    function buyTokens() external payable {\n        balances[msg.sender] = balances[msg.sender] + msg.value;\n    }\n    \n    function withdrawTokens() external payable {\n        require(balances[msg.sender] > 0, \"No funds available!\");\n        uint256 amount = balances[msg.sender];\n        balances[msg.sender] = 0;\n        msg.sender.transfer(amount);\n    }\n}\n",
  "sourcePath": "/home/niklas/Documents/HIWI PATTERNS/smart-contract-dev-support/Design Patterns/Replay-Protection Pattern/ReplayProtectionAntipattern.sol",
  "compiler": {
    "name": "solc",
    "version": "0.7.0+commit.9e61f92b.Emscripten.clang"
  },
  "schemaVersion": "3.4.0",
  "updatedAt": "2021-05-26T11:12:50.851Z",
  "devdoc": {
    "kind": "dev",
    "methods": {},
    "version": 1
  },
  "userdoc": {
    "kind": "user",
    "methods": {},
    "version": 1
  }
}