{
  "contractName": "TokenPattern",
  "abi": [
    {
      "inputs": [
        {
          "internalType": "contract Token",
          "name": "_address",
          "type": "address"
        }
      ],
      "stateMutability": "nonpayable",
      "type": "constructor"
    },
    {
      "inputs": [],
      "name": "highest_bidder",
      "outputs": [
        {
          "internalType": "address",
          "name": "",
          "type": "address"
        }
      ],
      "stateMutability": "view",
      "type": "function"
    },
    {
      "inputs": [],
      "name": "t",
      "outputs": [
        {
          "internalType": "contract Token",
          "name": "",
          "type": "address"
        }
      ],
      "stateMutability": "view",
      "type": "function"
    },
    {
      "inputs": [
        {
          "internalType": "address",
          "name": "_address",
          "type": "address"
        }
      ],
      "name": "changeToken",
      "outputs": [],
      "stateMutability": "nonpayable",
      "type": "function"
    },
    {
      "inputs": [
        {
          "internalType": "uint256",
          "name": "bid",
          "type": "uint256"
        }
      ],
      "name": "auction",
      "outputs": [],
      "stateMutability": "nonpayable",
      "type": "function"
    }
  ],
  "bytecode": "0x608060405234801561001057600080fd5b506040516105193803806105198339818101604052602081101561003357600080fd5b8101908080519060200190929190505050336000806101000a81548173ffffffffffffffffffffffffffffffffffffffff021916908373ffffffffffffffffffffffffffffffffffffffff16021790555080600160006101000a81548173ffffffffffffffffffffffffffffffffffffffff021916908373ffffffffffffffffffffffffffffffffffffffff16021790555050610444806100d56000396000f3fe608060405234801561001057600080fd5b506004361061004c5760003560e01c80631200617f1461005157806366829b161461007f57806392d0d153146100c3578063bd9215f4146100f7575b600080fd5b61007d6004803603602081101561006757600080fd5b810190808035906020019092919050505061012b565b005b6100c16004803603602081101561009557600080fd5b81019080803573ffffffffffffffffffffffffffffffffffffffff169060200190929190505050610326565b005b6100cb6103c2565b604051808273ffffffffffffffffffffffffffffffffffffffff16815260200191505060405180910390f35b6100ff6103e8565b604051808273ffffffffffffffffffffffffffffffffffffffff16815260200191505060405180910390f35b80600160009054906101000a900473ffffffffffffffffffffffffffffffffffffffff1673ffffffffffffffffffffffffffffffffffffffff166327e235e3336040518263ffffffff1660e01b8152600401808273ffffffffffffffffffffffffffffffffffffffff16815260200191505060206040518083038186803b1580156101b557600080fd5b505afa1580156101c9573d6000803e3d6000fd5b505050506040513d60208110156101df57600080fd5b81019080805190602001909291905050501015610264576040517f08c379a00000000000000000000000000000000000000000000000000000000081526004018080602001828103825260158152602001807f496e73756666696369656e742062616c616e63652e000000000000000000000081525060200191505060405180910390fd5b60035481116102db576040517f08c379a00000000000000000000000000000000000000000000000000000000081526004018080602001828103825260148152602001807f596f75722062696420697320746f6f206c6f772e00000000000000000000000081525060200191505060405180910390fd5b33600260006101000a81548173ffffffffffffffffffffffffffffffffffffffff021916908373ffffffffffffffffffffffffffffffffffffffff1602179055508060038190555050565b60008054906101000a900473ffffffffffffffffffffffffffffffffffffffff1673ffffffffffffffffffffffffffffffffffffffff163373ffffffffffffffffffffffffffffffffffffffff161461037e57600080fd5b80600160006101000a81548173ffffffffffffffffffffffffffffffffffffffff021916908373ffffffffffffffffffffffffffffffffffffffff16021790555050565b600160009054906101000a900473ffffffffffffffffffffffffffffffffffffffff1681565b600260009054906101000a900473ffffffffffffffffffffffffffffffffffffffff168156fea2646970667358221220bcc5056c1b78a9ceb0ba1b4d20e152d5b955a46acceeeb6d18e59869c9fd9e8e64736f6c63430007000033",
  "immutableReferences": {},
  "source": "pragma solidity 0.7.0;\n\nimport './Token.sol';\n\ncontract TokenPattern {\n    address owner;\n    Token public t;\n    address public highest_bidder;\n    uint256 highest_bid;\n\n    constructor(Token _address) {\n        owner = msg.sender;\n        t = Token(_address);\n    }\n    \n    function changeToken (address _address) public {\n        require(msg.sender == owner);\n        t = Token(_address);\n    }\n\n    function auction(uint256 bid) public {\n        require(t.balances(msg.sender) >= bid, \"Insufficient balance.\");\n        require(bid>highest_bid, \"Your bid is too low.\");\n        \n        highest_bidder=msg.sender;\n        highest_bid=bid;\n    }\n}    \n",
  "sourcePath": "/home/niklas/Documents/HIWI PATTERNS/smart-contract-dev-support/project-examples/ethereum/contracts/Idioms/Token Pattern/TokenPattern.sol",
  "compiler": {
    "name": "solc",
    "version": "0.7.0+commit.9e61f92b.Emscripten.clang"
  },
  "schemaVersion": "3.4.0",
  "updatedAt": "2021-08-30T09:29:37.564Z",
  "devdoc": {
    "kind": "dev",
    "methods": {},
    "version": 1
  },
  "userdoc": {
    "kind": "user",
    "methods": {},
    "version": 1
  }
}