{
  "contractName": "IndexedLoopPattern",
  "abi": [
    {
      "stateMutability": "payable",
      "type": "receive"
    },
    {
      "inputs": [],
      "name": "payout",
      "outputs": [],
      "stateMutability": "payable",
      "type": "function"
    }
  ],
  "bytecode": "0x608060405234801561001057600080fd5b5061028c806100206000396000f3fe6080604052600436106100225760003560e01c806363bd1d4a146100e3576100de565b366100de5761002f610226565b60405180604001604052803373ffffffffffffffffffffffffffffffffffffffff168152602001348152509050600081908060018154018082558091505060019003906000526020600020906002020160009091909190915060008201518160000160006101000a81548173ffffffffffffffffffffffffffffffffffffffff021916908373ffffffffffffffffffffffffffffffffffffffff16021790555060208201518160010155505050005b600080fd5b6100eb6100ed565b005b60008061a410905060006106729050600081830190505b60008054905060015410801561011a5750805a10155b8015610127575045818501105b15610208576000806001548154811061013c57fe5b90600052602060002090600202016001015490506000806001548154811061016057fe5b90600052602060002090600202016001018190555060006001548154811061018457fe5b906000526020600020906002020160000160009054906101000a900473ffffffffffffffffffffffffffffffffffffffff1673ffffffffffffffffffffffffffffffffffffffff166108fc829081150290604051600060405180830381858888f1935050505050838501945060016000815480929190600101919050555050610104565b60008054905060015414156102205760006001819055505b50505050565b6040518060400160405280600073ffffffffffffffffffffffffffffffffffffffff16815260200160008152509056fea2646970667358221220f75d9594ec5be0c4bf3b89f12bc6ad2f15b9026bec31bb5fb55692b9bedc6e7c64736f6c63430007000033",
  "immutableReferences": {},
  "source": "pragma solidity ^0.7.0;\n\ncontract IndexedLoopPattern {\n    struct Payee {\n        address payable addr;\n        uint256 value;\n    }\n\n    Payee[] payees;\n    uint256 nextPayeeIndex;\n\n    receive() external payable {\n        Payee memory p = Payee(msg.sender, msg.value);\n        payees.push(p);\n    }\n\n    function payout() public payable {\n        uint256 totalGasConsumed = 0;\n        // Estimated amount of gas required for each iteration (must not be smaller than the actually consumed gas)\n        uint256 gasPerIteration = 42000;\n        // Minimum amount of gas required to execute the code after the loop\n        uint256 gasForPostLoopExecution = 1650;\n        uint256 gasRequired = gasPerIteration + gasForPostLoopExecution;\n\n        while(nextPayeeIndex < payees.length && gasleft() >= gasRequired\n            && totalGasConsumed + gasRequired < block.gaslimit) {\n\n            uint256 val = payees[nextPayeeIndex].value;\n            payees[nextPayeeIndex].value = 0;\n            // Avoid transferring assets from within a loop because of untrustful external calls\n            payees[nextPayeeIndex].addr.send(val);\n            totalGasConsumed = totalGasConsumed + gasPerIteration;\n            nextPayeeIndex++;\n        }\n        \n        if(nextPayeeIndex == payees.length) {\n             nextPayeeIndex = 0;\n        }\n    }\n}\n",
  "sourcePath": "/home/niklas/Documents/HIWI AIFB/smart-contract-dev-support/contracts/IndexedLoopPattern.sol",
  "compiler": {
    "name": "solc",
    "version": "0.7.0+commit.9e61f92b.Emscripten.clang"
  },
  "schemaVersion": "3.3.4",
  "updatedAt": "2021-04-25T15:19:58.892Z",
  "devdoc": {
    "kind": "dev",
    "methods": {},
    "version": 1
  },
  "userdoc": {
    "kind": "user",
    "methods": {},
    "version": 1
  }
}