{
  "contractName": "MutexPattern",
  "abi": [
    {
      "inputs": [
        {
          "internalType": "address",
          "name": "",
          "type": "address"
        }
      ],
      "name": "balances",
      "outputs": [
        {
          "internalType": "uint256",
          "name": "",
          "type": "uint256"
        }
      ],
      "stateMutability": "view",
      "type": "function"
    },
    {
      "stateMutability": "payable",
      "type": "receive"
    },
    {
      "inputs": [
        {
          "internalType": "uint256",
          "name": "_amount",
          "type": "uint256"
        }
      ],
      "name": "withdraw",
      "outputs": [
        {
          "internalType": "bool",
          "name": "",
          "type": "bool"
        }
      ],
      "stateMutability": "payable",
      "type": "function"
    }
  ],
  "bytecode": "0x608060405260008060006101000a81548160ff02191690831515021790555034801561002a57600080fd5b506103b48061003a6000396000f3fe60806040526004361061002d5760003560e01c806327e235e3146100865780632e1a7d4d146100eb57610081565b366100815734600160003373ffffffffffffffffffffffffffffffffffffffff1673ffffffffffffffffffffffffffffffffffffffff16815260200190815260200160002060008282540192505081905550005b600080fd5b34801561009257600080fd5b506100d5600480360360208110156100a957600080fd5b81019080803573ffffffffffffffffffffffffffffffffffffffff16906020019092919050505061012f565b6040518082815260200191505060405180910390f35b6101176004803603602081101561010157600080fd5b8101908080359060200190929190505050610147565b60405180821515815260200191505060405180910390f35b60016020528060005260406000206000915090505481565b60008060009054906101000a900460ff16156101cb576040517f08c379a00000000000000000000000000000000000000000000000000000000081526004018080602001828103825260188152602001807f426c6f636b65642066726f6d207265656e7472616e63792e000000000000000081525060200191505060405180910390fd5b60016000806101000a81548160ff02191690831515021790555081600160003373ffffffffffffffffffffffffffffffffffffffff1673ffffffffffffffffffffffffffffffffffffffff16815260200190815260200160002054101561029a576040517f08c379a00000000000000000000000000000000000000000000000000000000081526004018080602001828103825260178152602001807f4e6f2062616c616e636520746f2077697468647261772e00000000000000000081525060200191505060405180910390fd5b81600160003373ffffffffffffffffffffffffffffffffffffffff1673ffffffffffffffffffffffffffffffffffffffff1681526020019081526020016000206000828254039250508190555060003373ffffffffffffffffffffffffffffffffffffffff168360405180600001905060006040518083038185875af1925050503d8060008114610347576040519150601f19603f3d011682016040523d82523d6000602084013e61034c565b606091505b505090508061035a57600080fd5b600191505060008060006101000a81548160ff02191690831515021790555091905056fea264697066735822122006e6181fa8b3e5ab3cdeb12cd342dcfcd33614173be68fbab468acc29758068b64736f6c63430007000033",
  "immutableReferences": {},
  "source": "pragma solidity ^0.7.0;\n\ncontract MutexPattern {\n    bool locked = false;\n    mapping(address => uint256) public balances;\n    \n    modifier noReentrancy() {\n        require(!locked, \"Blocked from reentrancy.\");\n        locked = true;\n        _;\n        locked = false;\n    }\n    \n    receive() external payable {\n        balances[msg.sender] += msg.value;\n    }\n\n    function withdraw(uint _amount) public payable noReentrancy returns(bool) {\n        require(balances[msg.sender] >= _amount, \"No balance to withdraw.\");\n        \n        balances[msg.sender] -= _amount;\n        (bool success, ) = msg.sender.call{value: _amount}(\"\");\n        require(success);\n\n        return true;\n    }\n}\n",
  "sourcePath": "/home/niklas/Documents/HIWI AIFB/smart-contract-dev-support/contracts/MutexPattern.sol",
  "compiler": {
    "name": "solc",
    "version": "0.7.0+commit.9e61f92b.Emscripten.clang"
  },
  "schemaVersion": "3.3.4",
  "updatedAt": "2021-04-25T15:19:58.894Z",
  "devdoc": {
    "kind": "dev",
    "methods": {},
    "version": 1
  },
  "userdoc": {
    "kind": "user",
    "methods": {},
    "version": 1
  }
}