{
  "contractName": "PullPattern",
  "abi": [
    {
      "inputs": [
        {
          "internalType": "address",
          "name": "",
          "type": "address"
        }
      ],
      "name": "balances",
      "outputs": [
        {
          "internalType": "uint256",
          "name": "",
          "type": "uint256"
        }
      ],
      "stateMutability": "view",
      "type": "function"
    },
    {
      "stateMutability": "payable",
      "type": "receive"
    },
    {
      "inputs": [],
      "name": "payout",
      "outputs": [],
      "stateMutability": "nonpayable",
      "type": "function"
    }
  ],
  "bytecode": "0x608060405234801561001057600080fd5b506102ea806100206000396000f3fe60806040526004361061002d5760003560e01c806327e235e31461007c57806363bd1d4a146100e157610077565b3661007757346000803373ffffffffffffffffffffffffffffffffffffffff1673ffffffffffffffffffffffffffffffffffffffff16815260200190815260200160002081905550005b600080fd5b34801561008857600080fd5b506100cb6004803603602081101561009f57600080fd5b81019080803573ffffffffffffffffffffffffffffffffffffffff1690602001909291905050506100f8565b6040518082815260200191505060405180910390f35b3480156100ed57600080fd5b506100f6610110565b005b60006020528060005260406000206000915090505481565b60008060003373ffffffffffffffffffffffffffffffffffffffff1673ffffffffffffffffffffffffffffffffffffffff16815260200190815260200160002054116101c4576040517f08c379a00000000000000000000000000000000000000000000000000000000081526004018080602001828103825260158152602001807f4e6f2062616c616e636520617661696c61626c652e000000000000000000000081525060200191505060405180910390fd5b60008060003373ffffffffffffffffffffffffffffffffffffffff1673ffffffffffffffffffffffffffffffffffffffff16815260200190815260200160002054905060008060003373ffffffffffffffffffffffffffffffffffffffff1673ffffffffffffffffffffffffffffffffffffffff168152602001908152602001600020819055503373ffffffffffffffffffffffffffffffffffffffff168160405180600001905060006040518083038185875af1925050503d80600081146102a9576040519150601f19603f3d011682016040523d82523d6000602084013e6102ae565b606091505b5050505056fea26469706673582212200b51cb0bc8742fe2132f15f56dcbb8ca2f487c8c1f23226bb623b112685442b364736f6c63430007000033",
  "immutableReferences": {},
  "source": "pragma solidity ^0.7.0;\n\ncontract PullPattern {\n    mapping (address => uint256) public balances;\n    \n    receive() external payable {\n        balances[msg.sender] = msg.value;\n    }\n\n    function payout() public {\n        require(balances[msg.sender] > 0, \"No balance available.\");\n\n        uint256 amount = balances[msg.sender];\n        balances[msg.sender] = 0;\n        msg.sender.call{value: amount}(\"\");\n    }\n}\n",
  "sourcePath": "/home/niklas/Documents/HIWI AIFB/smart-contract-dev-support/contracts/PullPattern.sol",
  "compiler": {
    "name": "solc",
    "version": "0.7.0+commit.9e61f92b.Emscripten.clang"
  },
  "schemaVersion": "3.3.4",
  "updatedAt": "2021-04-25T15:19:58.897Z",
  "devdoc": {
    "kind": "dev",
    "methods": {},
    "version": 1
  },
  "userdoc": {
    "kind": "user",
    "methods": {},
    "version": 1
  }
}